:020000040800F2
:1000000080070020890100089F130008AB12000838
:100010009D130008E3020008971500080000000087
:10002000000000000000000000000000151500089E
:10003000E502000800000000A113000817150008E1
:10004000A3010008A3010008A3010008A301000800
:10005000A3010008A3010008A3010008A3010008F0
:10006000A3010008A3010008A3010008A3010008E0
:10007000A3010008A3010008A3010008A3010008D0
:10008000A3010008A3010008A3010008A3010008C0
:10009000A3010008A3010008A3010008A3010008B0
:1000A000A3010008A3010008A3010008A3010008A0
:1000B000A3010008A3010008A3010008A301000890
:1000C000A3010008A3010008A3010008A51300086C
:1000D000A3010008A3010008A3010008A301000870
:1000E000A3010008A3010008A301000800F002F822
:1000F00000F03AF80AA090E8000C82448344AAF188
:100100000107DA4501D100F02FF8AFF2090EBAE885
:100110000F0013F0010F18BFFB1A43F0010318473B
:10012000D4140000F4140000103A24BF78C878C139
:10013000FAD8520724BF30C830C144BF04680C60ED
:10014000704700000023002400250026103A28BF35
:1001500078C1FBD8520728BF30C148BF0B60704739
:100160001FB51FBD10B510BD00F058F81146FFF7C0
:10017000F7FF01F021FA00F076F803B4FFF7F2FF81
:1001800003BC00F07DF8000009488047094800479B
:10019000FEE7FEE7FEE7FEE7FEE7FEE7FEE7FEE737
:1001A000FEE7FEE704480549054A064B7047000094
:1001B00095150008ED000008800100208007002050
:1001C00080030020800300204FF0000200B513469A
:1001D00094469646203922BFA0E80C50A0E80C5067
:1001E000B1F12001BFF4F7AF090728BFA0E80C5018
:1001F00048BF0CC05DF804EB890028BF40F8042B11
:1002000008BF704748BF20F8022B11F0804F18BF7D
:1002100000F8012B7047704770477047754600F033
:100220002BF8AE4605006946534620F00700854688
:1002300018B020B5FFF7B6FFBDE820404FF000062C
:100240004FF000074FF000084FF0000B21F00701BE
:10025000AC46ACE8C009ACE8C009ACE8C009ACE801
:10026000C0098D46704710B50446AFF300802046A4
:10027000BDE81040FFF781BF004870472001002013
:1002800001491820ABBEFEE726000200704770B59A
:10029000044600688168C943C90716D1816821F006
:1002A0000101816000F090FA054609E000F08CFA47
:1002B000401B022804D920688068C043C00706D0CC
:1002C00020688068C043C007F0D0002070BDA06ADD
:1002D00040F01000A062E06A40F00100E0620120FE
:1002E00070BDFEE770470000F8B50023009390F85A
:1002F00024201C46012A12D0012280F824204A68BA
:100300001F26072A0DD205686F6B521E02EB820270
:100310009640B7430E68964037436F6319E002205A
:10032000F8BD05680D2A0AD22F6BD21F02EB82029C
:100330009640B7430E68964037432F6309E0EF6A53
:100340000D3A02EB82029640B7430E68964037435F
:10035000EF620A68072605680A2A0AD3EF680A3A94
:1003600002EB42029640B7438E6896403743EF60F7
:1003700008E02F6902EB42029640B7438E68964030
:1003800037432F610A68102A01D0112A20D1124D5B
:100390000268AA4217D195682D0219D4956845F4D0
:1003A000000595600968102912D10C490C4A0968AA
:1003B000B1FBF2F101EB8101490000E0491E00911F
:1003C0000029FBD104E0816A41F020018162012310
:1003D00080F824401846F8BD002401401400002095
:1003E00040420F002DE9F0414FF000060400354671
:1003F0007DD0A06A002728B9E76284F824702046DF
:1004000000F07EF82046FFF742FFA16AC90600D43B
:1004100020B1A06A40F01000A06268E0A16A21F457
:10042000885141F00201A1626268E169237B0A43BD
:1004300046EA43010A43A1684FF48076B14208D0EE
:10044000012906D0002194F814C0BCF1010F02D09C
:100450000AE03146F7E7F3B1A36A43F02003A36251
:10046000E36A43F00103E3622368D3F804C02CF489
:10047000694C4CEA010CC3F804C021688B68DFF8B2
:1004800074C003EA0C0313438B60A168B1420BD024
:10049000012909D00CE0DFF860C0A3690CEB4333FD
:1004A0000B4343F40061DFE7218A0D05A5F58015B4
:1004B0002168CB6A23F470032B43CB6221688968DF
:1004C0000E4B1940914208D1E762A16A21F0020166
:1004D00041F00101A162BDE8F081A06A20F00200B4
:1004E00040F01000A062E06A40F00100E0620120EC
:1004F000F1E70000FDF7E1FF00E0FFFFFE0E1FFF48
:1005000000B585B00021009101910291039100682E
:100510000E49884218D10E48816941F40071816109
:10052000816901F400710491816941F004018161E4
:100530008069694600F004000490012000900320C7
:100540000190044800F054F805B000BD00240140BB
:10055000001002400008014010B590F8211000245E
:10056000022903D00421816301243DE001680A6867
:1005700022F00E020A6001680A6822F001020A6095
:100580001A4A0168914201D1012121E0174A14322F
:10059000914201D110211BE0144A2832914201D12D
:1005A000891515E0114A3C32914201D189140FE0BE
:1005B0000E4A5032914202D14FF4803108E00B4A8A
:1005C0006432914202D14FF4801101E04FF080710A
:1005D000064A083A5160012180F82110002180F874
:1005E0002010416B01B18847204610BD0800024031
:1005F0002DE9F84FDFF8A4910024A9F1040B23465C
:100600004FF00F0809F1040AABF1040EBEE0012718
:10061000A7403A40BA4272D1DFF884C14D68A5EBD9
:100620000C0665452BD00DDC032D34D005DC35B32D
:10063000012D19D0022D2FD11BE0112D16D0122D16
:100640002AD119E0B6F5881F19D006DCB6F5803F2F
:1006500015D0B6F5801F1FD111E0B6F5001F0ED0E2
:10066000B6F5041F18D10AE0CB6815E0CB681B1D56
:1006700012E0CB6808330FE0CB680C330CE08B68DA
:100680002BB1012B4FF0080303D0476104E0042392
:1006900002E0076100E00023FF2A01D8064601E0DE
:1006A00000F104064FEA840501D9A5F12005376859
:1006B00008FA05FC27EA0C0703FA05F547EA0507DF
:1006C00037604D68ED0060D5364DAE6946F00106E5
:1006D000AE61AD6924F0030605F001050095324DC9
:1006E0007719BE68A5072D0F08FA05FC26EA0C0647
:1006F000DFF8B8C0604503D14FF0000C17E044E0CC
:10070000DFF8ACC0604502D14FF0010C0FE0DFF81C
:10071000A4C0604502D14FF0020C08E0DFF898C099
:10072000604502D14FF0030C01E04FF0040C0CFACD
:1007300005FC4CEA060CC7F808C04D68D9F8006003
:10074000ED024D4601D5164300E096432E604D68FC
:10075000DAF80060AD02554601D5164300E0964335
:100760002E604D68DBF80060AD035D4601D5164391
:1007700000E096432E604D68DEF80060ED0375469C
:1007800001D5164300E096432E60641C0A6832FAD5
:1007900004F57FF43CAFBDE8F88F00000804014089
:1007A000000011100010024000000140000801404C
:1007B000000C014000100140001401400AB1016129
:1007C00070470904FBE7000001488068704700009B
:1007D0000800002002488168027811448160704757
:1007E00008000020074810B5016841F010010160C1
:1007F000032000F075F80F2000F006F800F024F850
:10080000002010BD0020024070B50D4D04464FF48D
:100810007A712878B1FBF0F00A490968B1FBF0F071
:1008200000F02FFD48B9102C07D200222146501E9F
:1008300000F036F800206C6070BD012070BD000033
:1008400008000020140000200C4808B5816941F020
:1008500001018161816901F001010091C16941F0EB
:100860008051C161C069064900F08050009048681D
:1008700020F0E06040F00070486008BD00100240C9
:1008800000000140002809DB00F01F020121914017
:100890004009800000F1E020C0F80011704700001E
:1008A000F0B40E4B1B68C3F30223C3F10704042CFE
:1008B00000D904241D1D072D01D2002300E0DB1EFA
:1008C000012606FA04F56D1E0D409D409E40761EE1
:1008D000164045EA0601F0BC00F05EBE0CED00E0FB
:1008E000064A00F0070110684FF6FF03184040EA7F
:1008F0000120034908431060704700000CED00E040
:100900000000FA052DE9F84304460078344FC0078B
:1009100052D0F8690025C00008D4F86940F0805032
:10092000F861F869012500F0805000902D480168B9
:10093000C90511D40168804641F480710160FFF758
:1009400043FF064604E0FFF73FFF801B642822D8E0
:10095000D8F80000C005F6D5386A10F4407020D0F1
:10096000A18801F4407181421BD0386A1E490122DE
:1009700020F440700A6000220A603862C00710D07C
:10098000FFF722FF064641F2883807E0FFF71CFF19
:10099000811B414502D90320BDE8F883386A8007EE
:1009A000F4D5386A616820F44070084338621DB19C
:1009B000F86920F08050F8612078800705D57868C4
:1009C000A16820F44040084378602078C00605D52F
:1009D0007868E16820F48000084378600020DBE755
:1009E0000010024000700040400442422DE9F047F0
:1009F0000D46040067D0DFF81881D8F8000000F039
:100A00000700A8420CD2D8F8001021F007012943B2
:100A1000C8F80010D8F8000000F00700A84252D132
:100A200020683C4E810712D5400703D5706840F41A
:100A3000E06070602078000703D5706840F4605073
:100A400070607068A16820F0F00008437060207842
:100A5000C00727D06068012810D03168022810D064
:100A6000890700292FDA716821F0030101437160C1
:100A7000FFF7AAFE074641F288390CE03168890386
:100A8000EFE78901EDE7FFF79FFEC11B494502D95A
:100A90000320BDE8F0877068616800F00C00B0EBDF
:100AA000810FF0D1D8F80010404601F00701A942AB
:100AB0000BD9016821F0070129430160006800F0AB
:100AC0000700A84201D00120E3E72078400705D5C0
:100AD0007068E16820F4E0600843706020780007E7
:100AE00006D57068216920F4605040EAC10070604A
:100AF00000F018F87168084AC1F30311515CC8404E
:100B00000649086006480068FFF77EFE0020C0E73F
:100B10000020024000100240E415000814000020EC
:100B20000C0000200E4B59680E4801F00C02042AFC
:100B300011D0082A0FD10C48C1F38342C903805C4D
:100B40000AD55968084AC1F34041921E515C054AD2
:100B50005043B0FBF1F07047044948437047000030
:100B60000010024000127A00D415000800093D0070
:100B70002DE9F84F04006FD02078BE4DC00747D054
:100B80006868C0F38100012807D06868C0F381005D
:100B9000022809D16868C00306D52868800337D5C4
:100BA00060680028E7D033E06068B0F5803F0BD084
:100BB00010B1B0F5A02F11D0286820F48030286043
:100BC000286820F4802002E0286840F48030286003
:100BD000606888B1FFF7F8FD064609E0286840F430
:100BE00080202860F0E7FFF7EFFD801B642873D8B2
:100BF00028688003F7D50BE0FFF7E6FD064604E022
:100C0000FFF7E2FD801B6428F1D828688003F7D441
:100C10002078DFF8648280074FF0010A4FF0000966
:100C200039D5686810F00C0F07D06868C0F38100F0
:100C3000022809D16868C00306D42868800714D543
:100C40002069012808D110E02069B0B1C8F800A0DF
:100C5000FFF7BAFD064605E007E1FFF7B5FD801B8B
:100C60000228C4D828688007F7D52868616920F071
:100C7000F80040EAC10028600DE0C8F80090FFF7D6
:100C8000A3FD064604E0FFF79FFD801B022823D842
:100C900028688007F7D4207800072CD57748A16909
:100CA000D9B1C0F800A0FFF78FFD064604E0FFF7BA
:100CB0008BFD801B02280FD8686A8007F7D5704823
:100CC0004FF4FA510068B0FBF1F0009000BF0098BB
:100CD000411E0091FAD20EE07CE0C0F80090FFF7D0
:100CE00073FD064604E0FFF76FFD801B022871D8F4
:100CF000686A8007F7D4207840075BD5E869002749
:100D0000C00008D4E86940F08050E861E869012734
:100D100000F0805000905B480168C90511D401685B
:100D2000834641F480710160FFF74EFD064604E002
:100D3000FFF74AFD801B64284CD8DBF80000C00593
:100D4000F6D5E06801280AD008B1052813D0286A32
:100D500020F001002862286A20F0040002E0286ADE
:100D600040F001002862E06841F2883B88B1FFF75B
:100D70002BFD064609E0286A40F004002862EEE7F1
:100D8000FFF722FD811B59455BD8286A8007F7D5FC
:100D90000BE0FFF719FD064604E0FFF715FD811B88
:100DA00059454ED8286A8007F7D41FB1E86920F06A
:100DB0008050E861E069A8B36968C1F38101022944
:100DC00046D00228484606D0C8F86000FFF7FCFC71
:100DD000044639E035E04746C8F86000FFF7F4FC08
:100DE000064604E0FFF7F0FC801B022829D828689B
:100DF0008001F7D4206AB0F5803F05D16868A1680A
:100E000020F4003008436860D4E9080108436968A9
:100E100021F4741108436860C7F860A0FFF7D4FCA0
:100E2000044605E023E0FFF7CFFC001B022808D8AA
:100E300028688001F7D51AE0FFF7C6FC001B0228DE
:100E400002D90320BDE8F88F28688001F4D40EE0B1
:100E50000128F7D06868226A00F48031914204D1F9
:100E6000616A00F47010884201D00120EAE7002096
:100E7000E8E70000001002400000424280044242C5
:100E800014000020007000407047000038B5044690
:100E9000006842688168C9434B0606D5CB0704D178
:100EA000D3435B0601D4216C05E08B0708D4D34300
:100EB0001B0605D4616C01B02046BDE830400847F0
:100EC0008B0601D54B0646D4D3439B0643D44B0631
:100ED0000AD494F85130032B3ED0636D43F00403E1
:100EE0006365C36883680093890609D4616D41F026
:100EF0000101616581680091016821F04001016094
:100F0000606D002827D02068416821F0E001416031
:100F1000012084F85100900722D02068416821F018
:100F200003014160104DE06C40B14563E06CFFF798
:100F300013FB18B1606D40F040006065A06C0028A4
:100F400009D04563A06CFFF707FB002803D0606D54
:100F500040F04000606538BDC1688068009038BDD1
:100F60002046FFF791FF38BDB113000870B50400AB
:100F700009D0606A002540B125616561A56294F8D9
:100F8000510040B10CE0012070BD6068B0F5827F77
:100F9000F4D0E561F2E784F85050204600F040F8C4
:100FA000022084F851002068016821F040010160AE
:100FB000A088218900F4827001F404410843A189CA
:100FC00001F400610843217C01F002010843217D06
:100FD00001F001010843218B01F400710843217FD6
:100FE00001F03801084394F8201001F08001084313
:100FF000218D01F40051084321680860A069042193
:1010000001EA1040216848602068C16921F400614C
:10101000C1616565012084F85100002070BD0000A9
:1010200010B586B0002100910191029103910068F2
:101030001749884229D11748816941F4805181615B
:10104000816901F480510491816941F00401816159
:101050008069114C00F004000490B02000906946B3
:101060002046FFF7C5FA402100910221019103219A
:10107000039169462046FFF7BBFA00221146232060
:10108000FFF70EFC2320FFF7FDFB06B010BD0000AC
:101090000030014000100240000801402DE9FF4FE0
:1010A00081B01F469346044601250E9EFFF78CFB38
:1010B000804694F851006168012806D0B1F5827F1E
:1010C0003CD1A168C9BB042838D10298002870D04F
:1010D000BBF1000FFBD0002FF9D094F8500001288D
:1010E0002CD04FF0010A84F850A094F85100042845
:1010F00002D0052084F851004FF00009C4F8549044
:10110000C4F838B0E787A78702992163E786A786E6
:10111000C4F84090C4F8449020680168490603D49C
:10112000016841F040010160E068B0F5006F60685F
:1011300008D0E8B3012F47D07DE0FFE7022005B0DB
:10114000BDE8F08F08B1012F37D1206B21680088EE
:10115000C860206B801C2063E08E401EE0862CE07F
:101160002068816889070DD5E18E59B1012D09D11B
:10117000216B0988C160206B801C2063E08E401EBB
:10118000E086002520688168C9070BD0E18F49B14E
:10119000C068A16B0880A06B801CA063E08F401E1C
:1011A000E0870125FFF710FBA0EB0800B04201E04B
:1011B0000AE064E001D3701C4ED1E08E0028CFD14C
:1011C000E08F0028CCD13CE0206B216800780873C8
:1011D000206B401C2063E08E401EE0862BE02068E0
:1011E000816889070DD5E18E59B1012D09D1216B97
:1011F00009780173206B401C2063E08E401EE0865E
:10120000002520688168C9070BD0E18F49B1C0680B
:10121000A16B0870A06B401CA063E08F401EE087AC
:101220000125FFF7D1FAA0EB0800B04202D3701CF1
:1012300001D011E086B1E08E0028D0D1E08F0028E7
:10124000CDD142463146204600F0BAF850B12020B8
:10125000606584F8509012E084F851A084F85090B2
:1012600003206CE7A06818B92068C1688068009006
:1012700084F851A084F85090606D0028F1D00120CE
:101280005DE710B5401EB0F1807F01D3012010BD95
:101290004FF0E02460610F21601700F07DF900201D
:1012A000A06107202061002010BDFEE73EB50024AC
:1012B00010480094019402940D4984600160047305
:1012C0000475012505614FF460214460C161FFF799
:1012D00089F808B172B6FEE7CDE9004569460548D0
:1012E0000294FFF701F8002801D072B6FEE73EBD78
:1012F000002401409800002030B585B00024174834
:101300000094019402940394816941F02001816169
:10131000816901F020010491816941F0040181613A
:10132000816901F004010491816941F00801816142
:1013300080690B4D00F0080004900022012128462E
:10134000FFF73CFA0220012103900091CDE901143E
:1013500069462846FFF74CF905B030BD0010024041
:10136000000C01400C4810B50A49016000214160A1
:101370008160C1600161416181610162416281629C
:101380000A21C162FFF7F2FD002801D072B6FEE724
:1013900010BD000000300140C8000020FEE7FEE75D
:1013A000704700000148FFF771BD0000C800002031
:1013B00010B5406A0021C187C186FFF765FD10BDE9
:1013C000F8B515460E460B4600920446012202214E
:1013D00000F044F840B933460022802120460095B1
:1013E00000F03CF8002804D0606D40F020006065FB
:1013F0000320F8BD38B5164D0223AC1CA888A21EE8
:10140000010A217060704FF0FF300090911C11486C
:10141000FFF744FE002818D1A11E0878497800F093
:10142000800200F07F00802A0FD10A4AB03A0128DA
:10143000115406D1012909D0002201210648FFF7E5
:10144000BDF9A888010A2170607038BD0122F4E757
:1014500000000020C8000020000C01402DE9F843E6
:101460001E46914688460446089DFFF7ADF9401B8D
:10147000351AFFF7A9F9074625480068C0F3CB30B5
:10148000684338E0701C37D0FFF79EF9C01BA842B4
:1014900003D215B1009860B32CE02068416821F0B8
:1014A000E00141606068B0F5827F0BD1A068B0F5C3
:1014B000004F02D0B0F5806F04D12068016821F0A0
:1014C00040010160A06AB0F5005F09D120680168A1
:1014D00021F4005101602068016841F4005101606D
:1014E000012084F85100002084F850000320BDE85A
:1014F000F8830025401E00902068816838EA0100CA
:1015000004D000204845BDD10020F0E70120F9E7D4
:10151000140000207047FFF75DB930B593B0282163
:101520006846FEF751FE14210AA8FEF74DFE00247E
:1015300001210F9410940804CDE900101194129425
:10154000029402250491CDE907504FF4E010099070
:101550006846FFF70DFB08B172B6FEE70F20CDE934
:101560000A054FF48060CDE90C4002210AA80E94D0
:10157000FFF73CFA08B172B6FEE74FF40040119055
:101580000F950FA8FFF7BEF9002801D072B6FEE74D
:1015900013B030BD7047FEE70907090E002804DBD1
:1015A00000F1E02080F80014704700F00F0000F117
:1015B000E02080F8141D7047FFF714F9FFF7ADFF26
:1015C000FFF79AFEFFF772FEFFF7CCFEFFF712FF60
:1015D000FCE7010202030405060708090A0B0C0DCB
:1015E0000E0F1010000000000000000001020304B4
:1015F0000607080914160008000000201800000063
:10160000280100082C1600081800002068070000B8
:101610004401000800000000E80300000100000091
:0C162000100000000000000000127A0022
:04000005080000ED02
:00000001FF
