:020000040800F2
:1000000090070020290200087F190008C118000885
:100010007D1900082F030008091D000800000000DA
:10002000000000000000000000000000811C00082B
:10003000490300080000000081190008831C000823
:10004000430200084302000843020008430200087C
:10005000430200084302000843020008430200086C
:10006000430200084302000843020008430200085C
:100070004302000843020008310300083D03000862
:10008000430200084302000843020008430200083C
:10009000430200084302000843020008430200082C
:1000A000430200084302000843020008430200081C
:1000B000430200084302000843020008430200080C
:1000C00043020008430200084302000843020008FC
:1000D000011A000843020008430200084302000816
:1000E00043020008430200084302000843020008DC
:1000F00043020008430200084302000843020008CC
:1001000043020008430200084302000843020008BB
:1001100043020008430200084302000843020008AB
:10012000430200084302000843020008430200089B
:10013000430200084302000843020008430200088B
:10014000430200084302000843020008430200087B
:10015000430200084302000843020008430200086B
:10016000430200084302000843020008430200085B
:100170004302000843020008430200080000000098
:10018000430200084302000800F002F800F03CF8C7
:100190000AA090E8000C82448344AAF10107DA45E2
:1001A00001D100F031F8AFF2090EBAE80F0013F0F8
:1001B000010F18BFFB1A43F001031847B81E0000D7
:1001C000D81E0000103A24BF78C878C1FAD8520768
:1001D00024BF30C830C144BF04680C6070470000C1
:1001E0000023002400250026103A28BF78C1FBD840
:1001F000520728BF30C148BF0B6070471FB501F0E0
:1002000013FF1FBD10B510BD00F058F81146FFF7E1
:10021000F5FF01F0C3FE00F076F803B4FFF7F2FF3C
:1002200003BC00F07DF800000948804709480047FA
:10023000FEE7FEE7FEE7FEE7FEE7FEE7FEE7FEE796
:10024000FEE7FEE704480549054A064B70470000F3
:10025000F91C000889010008900100209007002087
:1002600090030020900300204FF0000200B51346D9
:1002700094469646203922BFA0E80C50A0E80C50C6
:10028000B1F12001BFF4F7AF090728BFA0E80C5077
:1002900048BF0CC05DF804EB890028BF40F8042B70
:1002A00008BF704748BF20F8022B11F0804F18BFDD
:1002B00000F8012B7047704770477047754600F093
:1002C0002BF8AE4605006946534620F007008546E8
:1002D00018B020B5FFF7B6FFBDE820404FF000068C
:1002E0004FF000074FF000084FF0000B21F007011E
:1002F000AC46ACE8C009ACE8C009ACE8C009ACE861
:10030000C0098D46704710B50446AFF30080204603
:10031000BDE81040FFF781BF004870472C01002066
:1003200001491820ABBEFEE7260002007047FEE739
:10033000014800F033B8000088000020014800F0B8
:100340002DB80000D0000020704772B6FEE710B54F
:1003500090F825100024022903D00421C163012450
:100360001AE001680A6822F001020A6001680A685E
:1003700022F00E020A6090F84410036C01F01C0297
:10038000012101FA02F25A6080F82510002180F85C
:100390002410816B01B18847204610BDF0B4016C78
:1003A0000D6801680C6890F8442002F01C060422D5
:1003B00002FA06F32B4211D063070FD50B689B0698
:1003C00003D40B6823F004030B6090F8441001F091
:1003D0001C018A40016C4A60016B26E0022202FA8D
:1003E00006F72F424FF0000C4FF0010321D0A70772
:1003F0001FD50C68A40605D40C6824F00A040C6010
:1004000080F82530184B0168994290F8441001F0AB
:100410001C0102FA01F202D914490A6002E01249F1
:1004200080394A6080F824C0C16A00291AD0F0BC23
:1004300008470822B2402A4214D0220712D50A687F
:1004400022F00E020A6090F84410026C01F01C01C8
:1004500003FA01F15160C36380F8253080F824C0AD
:10046000416BE2E7F0BC70478000024004040240A8
:1004700010B568B12C4C026814232C49A24209D251
:100480002B4C1444B4FBF3F39B00C0E910130BE0B6
:10049000012010BD244C64421444B4FBF3F39B00D0
:1004A0004364214B083B0364022380F82530136822
:1004B00047F6F074A3431360D0E902231A43D0E94E
:1004C000043423431A4383691A43C3691A43036AF2
:1004D0001A4303681C6822431A608268B2F5804F91
:1004E00019D0036C0F228B4202D151F8A83F02E0D1
:1004F0000D49A0310B6890F8444004F01C04A24060
:1005000093430B6090F84430426803F01C039A4018
:100510000B681A430A600021C163012280F825207C
:1005200080F82410084610BD080402400000024074
:10053000F8FFFDBF70B5044600F022F90546601CC7
:1005400002D004480078044400F01AF9401BA0428D
:10055000FAD370BD000000202DE9F04FDFF8EC91D8
:1005600000220127A9F1040B85B003254FF00F0CE1
:1005700009F1040AABF1040EE0E000BF07FA02F44F
:1005800016EA04037ED00E7906F00306012E01D090
:10059000022E1FD186680096560005FA06F80496CA
:1005A000009E26EA08060096D1F80C80049E08FA00
:1005B00006F8009E48EA0608C0F80880466891F8E8
:1005C0000480A643C8F3001808FA02F848EA0608AF
:1005D000C0F80480D1F804806FEA0806B6070AD193
:1005E000C66AA643C8F3C00494403443C4620C797D
:1005F000E443A4070AD0C4684FEA420805FA08F6A3
:10060000B4438E6806FA08F62643C6600C7904F0F7
:100610000304022C11D1D40800EB84060296D6F80C
:1006200020805407E60E0CFA06F428EA04080C6948
:10063000B440029E44EA08043462046856000296FC
:1006400005FA06F6B4430E7906F00308029E08FA8E
:1006500006F848EA0408C0F800804C6814F4403FEB
:100660006BD03B4C266E46F001062666246E22F0C7
:10067000030604F001040094364C34440294A46848
:10068000960700E059E04FEA16780CFA08F6B443F2
:10069000B0F1904F04D0304EB04203D101261BE0A0
:1006A000002619E02D4EB04201D1022614E02C4E56
:1006B000B04201D103260FE02A4EB04201D10426F8
:1006C0000AE0294EB04201D1052605E0274EB0428E
:1006D00001D1062600E0072606FA08F62643029C0A
:1006E000A660D9F800404E46D1F804809C435FEAEA
:1006F000C82800D51C433460DAF800405646D1F8CB
:1007000004809C435FEA882800D51C433460DBF8F2
:1007100000405E46D1F804809C435FEA883800D5EB
:100720001C433460DEF800407646D1F804809C43D8
:100730005FEAC83800D51C433460521C0B681E4663
:10074000D3407FF41BAF05B000F012B8080401409D
:10075000001002400000014000040048000800486A
:10076000000C004800100048001400480018004821
:1007700030BCBDE8C08F0AB18161704781627047AB
:10078000014880687047000000000020024881682E
:1007900002781144816070470000002010B50024E9
:1007A000032000F071F80F2000F008F808B10124D0
:1007B00001E000F025F8204610BD000070B50E4E97
:1007C00005460024307898B14FF47A71B1FBF0F00F
:1007D0000A490968B1FBF0F001F05EF840B9102D4C
:1007E00006D200222946501E00F02EF8756000E067
:1007F0000124204670BD0000000000200C000020F5
:10080000094808B5016E41F001010166016E01F071
:1008100001010091816D41F080518165806D00F092
:100820008050009008BD000000100240002809DB45
:1008300000F01F02012191404009800000F1E020FA
:10084000C0F8001170470000F0B40E4B1B680C4656
:10085000C3F30223C3F10705042D00D90425191D94
:10086000072901D2002300E0DB1E012606FA05F16C
:10087000491E214099409E40761E16403143F0BCEF
:1008800001F043BA0CED00E0064900F007020868E9
:100890004FF6FF03184040EA0220034A1043086065
:1008A000704700000CED00E00000FA051649B0F5B5
:1008B000007F0868C0F3412009D0022805D00868ED
:1008C00020F4C06040F48060086000207047012878
:1008D000FBD0086820F4C06040F4007008600B484A
:1008E0003222006850430A4AB0FBF2F0401C00E09C
:1008F000401E4A69520501D50028F9D148694005D2
:10090000E3D5032070470000007000400C00002079
:1009100040420F000248006800F4C06070470000C9
:10092000007000402DE9F0470F4605006BD0494E9E
:10093000306800F00700B84209D2306820F00700A4
:1009400038433060306800F00700B8425BD1287847
:10095000414C80070AD5A868A16801F0F0018842DF
:1009600004D9A16821F0F0010143A1602878C007F3
:100970002CD06868032811D0022812D0216898B1C1
:10098000490500293FDAA16821F003010143A16074
:10099000FFF7F6FE804641F2883910E021688901B0
:1009A000EFE721688903ECE78907EAE7FFF7E8FE4C
:1009B000A0EB0801494502D90320BDE8F087A068F3
:1009C000696800F00C00B0EB810FEFD12878800748
:1009D0000AD5A868A16801F0F001884204D2A16894
:1009E00021F0F0010143A160306800F00700B84237
:1009F0000BD9306820F0070038433060306800F0D1
:100A00000700B84201D00120D7E72878400705D574
:100A1000A068E96820F4E0600843A0602878000737
:100A200006D5A068296920F4605040EAC100A060A2
:100A300000F01AF8A168094AC1F30311515C01F0F2
:100A40001F01C8400649086006480068BDE8F04735
:100A5000FFF7B4BE0020024000100240342000081E
:100A60000C0000200400002070B525490023184622
:100A70008A68CC6812F00C0204F00306214C4FEA9D
:100A8000640509D00C2A05D0042A32D0082A00D1E6
:100A9000284670BD012E10D10B681B0704D4D1F875
:100AA0009430C3F3032302E00B68C3F30313164E21
:100AB00056F82330DAB10C2AEBD1C86800F00300F5
:100AC000022818D0032818D01846CA68CB68C2F389
:100AD0000212C3F306234343521CB3FBF2F2C8686D
:100AE000C0F34160401C4000B2FBF0F070BD1846FE
:100AF00070BD204670BD2046E7E72846E5E70000C8
:100B0000001002400024F400442000082DE9F843BE
:100B100004006FD0FD4DA86800F00C06E86800F0F6
:100B200003072078C00664D576B10C2E01D1012FC1
:100B30000AD0A069002828687AD040F00100286017
:100B4000FFF71EFE80465DE02868800702D5A06999
:100B50000028DED0216A2868000703D5286800F045
:100B6000F00004E0D5F89400F02202EA101081426F
:100B700016D9084600F006FF00283BD1286840F04F
:100B8000080028602868216A20F0F00008432860E7
:100B90006868E16920F47F4040EA0120686016E05F
:100BA000286840F0080028602868216A20F0F000DA
:100BB000084328606868E16920F47F4040EA01202A
:100BC000686026B9206A00F0DDFE0028D5D1FFF765
:100BD0004BFFA968CE4AC1F30311515C01F01F011C
:100BE000C840CC490860CC480068FFF7E7FD002802
:100BF0007ED12EE0CAE000BFFFF7C2FDA0EB0800E7
:100C0000022876D828688007F6D5286840F00800C2
:100C100028602868216A20F0F0000843286068688E
:100C2000E16920F47F4040EA0120686011E0FFE7BD
:100C300020F001002860FFF7A3FD804606E000BF1A
:100C4000FFF79EFDA0EB08000228DAD8286880078D
:100C5000F6D42078C00740D0082E18D00C2E01D131
:100C6000032F14D06068B0F5803F17D0B0F5A02FE7
:100C7000286817D020F480302860286820F480206D
:100C800028606068E0B1FFF77BFD804614E02868CB
:100C9000800322D56068002878D01EE0286840F4E0
:100CA0008030EDE740F480202860F7E7FFF768FD2B
:100CB000A0EB08006428A4D828688003F6D50CE0CF
:100CC000FFF75EFD804605E0FFF75AFDA0EB080048
:100CD000642896D828688003F6D4207880073BD50E
:100CE000042E11D00C2E01D1022F0DD0E06801E0AE
:100CF00086E1D6E0002828681ED040F48070286085
:100D0000FFF73EFD07460CE0286840050CD5E0687B
:100D10000028C1D008E000BFFFF732FDC01B022849
:100D200093D828684005F7D56868217C20F0F850F2
:100D300040EA016068600FE020F480702860FFF7EF
:100D40001FFD074605E000BFFFF71AFDC01B022884
:100D5000B1D828684005F7D42078000729D5606904
:100D60000028D5F8940012D040F00100C5F8940096
:100D7000FFF706FD074604E0FFF702FDC01B02284F
:100D800099D8D5F894008007F6D512E000E120F05C
:100D90000100C5F89400FFF7F3FC074605E000BF2B
:100DA000FFF7EEFCC01B02287BD8D5F89400800723
:100DB000F6D42078400766D5A86D0027C00008D477
:100DC000A86D40F08050A865A86D012700F0805004
:100DD000009052480168C90512D40168814641F467
:100DE00080710160FFF7CCFC804605E0FFF7C8FC8E
:100DF000A0EB0800022854D8D9F80000C005F5D5AA
:100E0000A068012816D00528D5F8900017D020F04A
:100E10000100C5F89000D5F8900020F0040000BF54
:100E2000C5F89000A06841F28839C0B1FFF7A8FC6E
:100E300080460FE0D5F8900040F00100F0E740F068
:100E40000400C5F89000F5E7FFF79AFCA0EB080155
:100E5000494526D8D5F890008007F5D50EE0FFF774
:100E60008FFC804606E000BFFFF78AFCA0EB08017C
:100E7000494516D8D5F890008007F5D41FB1A86D64
:100E800020F08050A865A06AF0B302280AD00C2E8A
:100E90007ED0286820F080702860FFF771FC04463F
:100EA000B0E0ACE0E868E26A00F00301914229D1C9
:100EB000216B00F0700209011039914222D1626B5E
:100EC00000F4FE41B1EB022F1CD1A26B00F4003103
:100ED000072A01D0012200E00022914212D1A18F05
:100EE00000F4C00249084905A1F50011914209D159
:100EF00094F8401000F0C06049084906A1F1007163
:100F000081425ED00C2E0BE072E000000010024027
:100F1000342000080C000020040000200070004075
:100F200079D02868400176D42868C00073D4286836
:100F300020F080702860FFF723FC064605E000BF24
:100F4000FFF71EFC801B022859D828688001F7D4BF
:100F5000D4E90B016FF00F0202EB01110843A18FDE
:100F60005204490802EB4151626B41EA02210843F5
:100F700094F840104FF07E42490802EB416108436B
:100F8000A16B090940EA4140E968244A114000E0A8
:100F900041E00843E860286840F080702860E86815
:100FA00040F08070E860FFF7EBFB044605E000BF0F
:100FB000FFF7E6FB001B022821D828688001F7D53F
:100FC00027E02868800124D4286840F080702860D9
:100FD000E86840F08070E860FFF7D2FB044604E068
:100FE000FFF7CEFB001B022809D828688001F7D53F
:100FF0000FE000BFFFF7C4FB001B022802D903204B
:10100000BDE8F88328688001F4D4E8680449084002
:10101000E8600020F4E70120F2E700008C809DF9F1
:10102000FCFFEEFE7047000038B5016804464A68D0
:101030008868C043430606D5C30704D1D3435B0683
:1010400001D4E16C05E0830708D4D3431B0605D423
:10105000216D01B02046BDE830400847830603D526
:10106000430601D5C30551D4D3439B064ED4430652
:101070000AD494F85D30032B49D0236E43F0040367
:101080002366CB688B680093830609D4236E43F0F4
:10109000010323668B6800930B6823F040030B6009
:1010A000C00506D4206E40F00800206620688068E5
:1010B0000090206E002829D02068416821F0E001CE
:1010C0004160012084F85D00900701D4D00722D050
:1010D0002068416821F003014160114DA06D40B1CD
:1010E0008563A06DFFF733F918B1206E40F0400022
:1010F0002066606D002809D08563606DFFF727F9D1
:10110000002803D0206E40F04000206638BDC8683B
:101110008868009038BD2046FFF784FF38BD000086
:101120000D1A000870B5040009D0606A002540B1AE
:1011300025616561A56294F85D0040B10CE0012075
:1011400070BD6068B0F5827FF4D0E561F2E784F8A5
:101150005C50204600F056F8022084F85D002068BC
:10116000016821F040010160E1684FF4E0629142C2
:1011700001D9002001E04FF48050B1F5706F02D02A
:10118000914200D0A562A188228901F4827102F403
:1011900004421143227C02F002021143227D02F03C
:1011A00001021143228B02F400721143227F02F0EC
:1011B0003802114394F8202002F080021143228D5E
:1011C00002F40052114322681160A169042202EA6C
:1011D000114194F8242000F4805002F010021143D1
:1011E00094F8342002F008021143A28902F47062DC
:1011F00011430143206841602566012084F85D00A9
:10120000002070BD2DE9F04186B0064614216846E5
:10121000FFF72AF835493068884264D13448816D37
:1012200041F480418165816D01F480410591C16C7B
:1012300041F00401C164C16C01F004010591C16C6D
:1012400041F00201C164C06C022500F0020005906B
:101250000C20CDE9000502AA002403274FF0050861
:1012600082E8900169462348FFF776F96802CDE9E4
:10127000000502AA694682E890011F48FFF76CF951
:101280001F4D1E4801272860C5E901744FF08008F2
:10129000C5E903486C61AC61EC6128462C62FFF73C
:1012A000E7F808B1FFF751F8B565AE621348154D80
:1012B0001430E5E802071020A5E81101114845F8AF
:1012C0001449AC61EC612C62FFF7D2F808B1FFF76A
:1012D0003CF87565002211462420AE62FFF7B4FA8F
:1012E0002420FFF7A3FA06B0BDE8F08100380040E3
:1012F000001002400008004800040048440002407A
:1013000088000020D00000202DE9F84F044690F816
:101310005D001D4616460F4601283FD1002F75D0AF
:10132000002E73D060684FF00408B0F5827F01D1C1
:10133000A06848B3FFF724FA824694F85C000128BD
:101340002CD04FF0010984F85C9084F85D804FF058
:101350000008C4F860802764A4F84460A4F84660DC
:10136000C4F83880A4F83C80A4F83E80C4F84C80CF
:10137000C4F85080E0684FF4E06188422068426819
:101380000ED922F480520DE084F85D80009313465C
:101390000A46204600F044F900F075B80220FBE749
:1013A00042F480524260A068B0F5004F09D1206835
:1013B000026822F0400202602068026822F4804243
:1013C000026020680268520603D4026842F04002BC
:1013D0000260E06888421BD939E020688168C9074B
:1013E0000BD0017B206C0170206C401C2064B4F891
:1013F0004600401EA4F846000AE0FFF7C1F9A0EB42
:101400000A00A84203D3681C02D036E032E09DB344
:10141000B4F846000028E0D11DE020688168C907C3
:101420000BD0C068216C0880206C801C2064B4F84C
:101430004600401EA4F8460009E0FFF7A1F9A0EB22
:101440000A00A84202D3681C01D016E0A5B1B4F886
:1014500046000028E1D152462946204600F0DFFA36
:1014600008B12020206684F85D9084F85C80206EAE
:10147000002891D001208FE7FFE784F85D9084F881
:101480005C80032088E718BCBDE8E08F2DE9F84FA9
:10149000984616468A460446FFF772F9814694F844
:1014A0005D00012820D1BAF1000F6FD0002E6DD061
:1014B00094F85C00012817D0012784F85C700320A1
:1014C00084F85D0000252566C4F838A0A687E68765
:1014D0002564A4F84450A4F846502565E564A06846
:1014E000B0F5004F03D00CE0022000F096B8206861
:1014F000016821F0400101602068016841F48041E9
:10150000016020680168490603D4016841F0400188
:101510000160E068B0F5E06F606826D908B1012E7F
:101520001FD1A06B21680088C86006E02068816830
:10153000890709D5A16B0988C160A06B801CA063D5
:10154000E08F401EE0870CE0FFF71AF9A0EB0901DD
:10155000414503D3B8F1FF3F03D04BE0B8F1000F92
:1015600048D0E08F0028E1D139E008B1012E33D115
:10157000E08F0128A06B03D921680088C86010E0C3
:1015800021680078087314E0E08725E043E02068D4
:101590008168890713D5E18F0129A16B07D90988D3
:1015A000C160A06B801CA063E08F801EECE709780F
:1015B0000173A06B401CA063E08F401EE4E7FFF7BF
:1015C000DFF8A0EB0901414503D3B8F1FF3F03D099
:1015D00010E0B8F1000F0DD0E08F0028D7D14A46B7
:1015E0004146204600F055FA08B120202066A06848
:1015F00030B109E084F85D7084F85C50032074E732
:101600002068C1688068009084F85D7004F85C5FB1
:1016100060680028F3D0012067E718BCBDE8E08FC0
:101620002DE9FF5F1D46934604464FF001090E9ECB
:10163000FFF7A6F8074694F85D006168012806D018
:10164000B1F5827F39D1A168B1BB042835D10198A9
:1016500000287CD0BBF1000FFBD0002DF9D094F80E
:101660005C00012829D04FF0010A84F85CA094F8AE
:101670005D00042802D0052084F85D004FF00008CA
:10168000C4F86080C4F840B0A4F84650A4F84450B0
:101690000199A163E587A587C4F84C80C4F8508000
:1016A000E0684FF4E061884201D8012D09D9206833
:1016B000426822F4805208E0FFE7022004B000F004
:1016C000E8B82068426842F48052426020680268AC
:1016D000520603D4026842F040020260E068884289
:1016E000606846D908B1012D3BD1A06B0188206804
:1016F000C160A06B801CA063E08F401EE08730E0DB
:101700002068816889070FD5E18F69B1B9F1010FB0
:101710000AD1A16B0988C160A06B801CA063E08F17
:10172000401EE0874FF0000920688168C90711D08A
:10173000B4F8461071B1C068216C0880206C801C20
:101740002064B4F84600401EA4F8460000E09EE085
:101750004FF00109FFF714F8C01BB04201D3701C11
:1017600074D1E08F0028CBD1B4F846000028C7D14F
:1017700075E008B1012D6BD1E08F0128A06B08D96D
:1017800021680088C860A06B801CA063E08F801E69
:1017900007E0216800780873A06B401CA063E08F0D
:1017A000401EE08754E02068816889071AD5E18FE0
:1017B000C1B1B9F1010F15D1E18F0129A16B07D991
:1017C0000988C160A06B801CA063E08F801E06E0CA
:1017D00009780173A06B401CA063E08F401EE08776
:1017E0004FF0000920688168C90728D0B4F8461076
:1017F00029B3B4F84610012914D9C068216C0880B7
:10180000206C801C2064B4F84600801EA4F84600BA
:10181000B4F84600012810D82068416841F480518E
:1018200041600AE0007B216C0870206C401C206441
:10183000B4F84600401EA4F846004FF00109FEF738
:101840009FFFC01BB04202D3701C01D012E08EB1CA
:10185000E08F0028A7D1B4F846000028A3D13A466B
:101860003146204600F015F950B12020206684F85A
:101870005C800CE084F85DA084F85C8003201DE7A8
:1018800084F85DA084F85C80206E0028F7D00120E9
:1018900014E730BCBDE8C09F10B5401EB0F1807F9A
:1018A00001D3012010BD4FF0E02460610F216017CB
:1018B00000F02BFA0020A06107202061002010BD5D
:1018C000FEE7000010B586B014216846FEF7CCFC98
:1018D0001548C16C41F00401C164C16C01F0040100
:1018E0000591C16C41F00201C164C16C01F00201BB
:1018F0000591C16C41F00101C164C06C0B4C00F05A
:1019000001000590002202212046FEF734FF02204C
:10191000009001200021CDE9010103916946204694
:10192000FEF71AFE06B010BD001002400008004885
:10193000114810B50F4901604FF4827141600021D8
:101940004FF4E062C0E90212022202610122426108
:10195000520282611822C0E9072107224162C0E9D0
:101960000A1201634163FFF7DDFB002801D072B664
:10197000FEE710BD0038004024000020FEE7FEE72F
:1019800070470000F8B51C4D06460024A86DC00045
:1019900002D5FEF7BFFF0DE0A86D40F08050A865AE
:1019A000A86D00F080500090FEF7B4FFA96D21F003
:1019B0008051A965B0F5007F04D0802E07D94FF083
:1019C00003040AE0802E08D9A02E01D804E001D13A
:1019D000022402E0702E00D101240848016821F0A1
:1019E000070121430160006800F00700A04201D018
:1019F0000120F8BD0020F8BD001002400020024088
:101A00000148FFF711BB00002400002010B5806AD8
:101A10000021A0F84610C187FFF704FB10BD2DE997
:101A2000F843044640684FF48276154689464FF4E1
:101A300000474FF48068B04209D1A068B84201D095
:101A4000404504D12068016821F0400101604B4607
:101A5000002280212046009500F0B4F880B960682B
:101A6000B04214D1A068B84201D040450FD14B46D6
:101A700000224FF4C0612046009500F02FF830B1ED
:101A8000206E40F0200020660320BDE8F88300208F
:101A9000FBE7F8B515460E460B46009204460022B9
:101AA0004FF4C05100F01AF888B933460022802163
:101AB0002046009500F086F848B9334600224FF4DE
:101AC000C0612046009500F009F8002804D0206E7F
:101AD00040F0200020660320F8BD00002DE9FE4FF5
:101AE0004FF0000A984617460E4604460C9D8DF8A6
:101AF00004A0FEF745FE411BA8EB0105FEF740FEE2
:101B0000814620684FF4C06B0C3002902A48006870
:101B1000C0EBC00000EB8000000D6843009016E0B1
:101B20005E4506D12FB9029800788DF804009DF823
:101B30000400B8F1FF3F0AD0FEF722FEA0EB090037
:101B4000A8420CD25DB1009898B3401E0090206866
:101B500080683040B842E3D1002000F02FB8206800
:101B6000416821F0E00141606068B0F5827F0BD1EF
:101B7000A068B0F5004F02D0B0F5806F04D12068A6
:101B8000016821F040010160A06AB0F5005F09D151
:101B90002068016821F4005101602068016841F467
:101BA00000510160012084F85D0084F85CA00320EE
:101BB000D3E7FFE70025CAE70C0000201EBCBDE804
:101BC000E08F00002DE9F8431E4691468846044602
:101BD000089DFEF7D5FD401B351AFEF7D1FD0746DF
:101BE00026480068C0F3CB3068430AE0701C09D077
:101BF000FEF7C6FDC01BA8420FD275B10098B8B35E
:101C0000401E00902068816838EA010033D000212E
:101C10004945EBD10020BDE8F8832068416821F0F8
:101C2000E00141606068B0F5827F0BD1A068B0F53B
:101C3000004F02D0B0F5806F04D12068016821F018
:101C400040010160A06AB0F5005F09D12068016819
:101C500021F4005101602068016841F400510160E5
:101C6000012084F85D00002084F85C000320D2E7A6
:101C7000FFE70025C6E70121CAE700000C000020AD
:101C80007047FEF783BD00B597B044216846FEF764
:101C9000EBFA142111A8FEF7E7FA4FF40070FEF7F3
:101CA00005FE08B172B6FEE70220C10103911021C2
:101CB000009004910A900121CDE90B010A210D91B8
:101CC0000721CDE90E1010906846FEF71FFF08B1FE
:101CD00072B6FEE70F20119003201290002013909F
:101CE00014901590042111A8FEF71CFE002801D0C5
:101CF00072B6FEE717B000BD0248016841F47001FA
:101D00000160704788ED00E0FEE70907090E002832
:101D100004DB00F1E02080F80014704700F00F00B1
:101D200000F1E02080F8141D70470000002202211D
:101D30000148FEF720BD00000008004808B56A46CB
:101D40000321002000F0F8F89DF80000032140F086
:101D500002028DF80020002000F00AF96420FEF74E
:101D6000E9FB6A460321002000F0E6F89DF8000038
:101D7000032140F020028DF80020002000F0F8F848
:101D80000A20FEF7D7FB07228DF800200121302022
:101D900000F0EEF80A20FEF7CDFB40228DF800207F
:101DA0000521002000F0E4F80A20FEF7C3FB03221F
:101DB0008DF800200021302000F0DAF80A20FEF72C
:101DC000B9FB80228DF800200221302000F0D0F8ED
:101DD0000A20FEF7AFFB0121322000F008F8642052
:101DE000FEF7A8FB0821312000F001F808BD70B50E
:101DF0000C4605460C220321302000F0B9F82A4693
:101E00000421302000F0B4F822460621302000F0F2
:101E1000AFF83220FEF78EFB81220521302000F042
:101E2000A7F8BDE870403220FEF784BB01220221F2
:101E30000148FEF7A0BC00000008004810B5C12210
:101E40000621002000F094F86420FEF773FB0122C5
:101E50000621002000F08CF800221021202000F044
:101E600087F800221021202000F082F8032214219C
:101E7000202000F07DF810220321002000F078F8E7
:101E800000221146202000F073F8032201212020B7
:101E900000F06EF8FFF752FF11248C22032130204E
:101EA00000F066F822460421302000F061F832206C
:101EB000FEF740FB88220521302000F059F832203F
:101EC000FEF738FBBDE81040002000F093B800009A
:101ED00038B50446AD208DF80000FFF727FF4FF41A
:101EE0007A73012269461248FFF7D0FA642314225C
:101EF00010490F48FFF708FAFFF798FF0D480188CF
:101F000049BA2180418849BA6180818849BAA18053
:101F1000C18849BAE180018949BA2181418949BA18
:101F20006181C189A181018AE181408A208238BD15
:101F3000240000201801002038B541F0800114462B
:101F40008DF8001000F056F8FFF7F0FE6423012230
:101F500069460648FFF79AFA64230122214603489E
:101F6000FFF7D2F9FFF762FF38BD00002400002020
:101F700007B500F03FF8FFF7D9FE6423012201A95D
:101F80000548FFF783FA6423012202A90248FFF7FC
:101F90007DFAFFF74BFF0EBD2400002008B5FEF7C9
:101FA000FDFBFFF770FEFFF78DFC1048816C41F0E0
:101FB00001018164806C002200F001000090114654
:101FC0000E20FEF741FC0E20FEF730FC00221146E9
:101FD0000F20FEF739FC0F20FEF728FCFFF7A8FCC6
:101FE000FFF72CFF0248FFF773FFFBE700100240EA
:101FF000100000201CB58DF800007F208DF8040033
:10200000FFF794FE6423012201A90648FFF73EFA78
:102010006423012269460348FFF738FAFFF706FFF9
:102020001CBD0000240000204FF04070E1EE100ABB
:1020300070470000000000000000000001020304DF
:1020400006070809A0860100400D0300801A06005B
:1020500000350C0040420F0080841E0000093D0046
:1020600000127A000024F40000366E010048E801F6
:10207000006CDC029420000800000020100000002A
:10208000C4010008A4200008100000208007000000
:10209000E001000801000000100000000000000046
:0420A00000093D00F6
:040000050800018965
:00000001FF
