:020000040800F2
:10000000480500209D01000863170008DF14000860
:100010006117000809020008211D00080000000007
:10002000000000000000000000000000E5170008CC
:100030000B0200080000000065170008E717000821
:10004000B7010008B7010008B7010008B7010008B0
:10005000B7010008B7010008B7010008B7010008A0
:10006000B7010008B7010008B7010008B701000890
:10007000B7010008B7010008B7010008B701000880
:10008000B7010008B7010008B7010008B701000870
:10009000B7010008B7010008B7010008B701000860
:1000A000B7010008B7010008B7010008B701000850
:1000B000B7010008B70100086D180008B701000873
:1000C000B7010008B7010008B7010008B701000830
:1000D000B7010008B7010008B7010008B701000820
:1000E000B7010008B7010008B7010008B701000810
:1000F000B7010008B7010008B7010008B701000800
:10010000B7010008B7010008B7010008B7010008EF
:10011000B7010008B7010008B7010008B7010008DF
:10012000B7010008B7010008B7010008B7010008CF
:10013000B7010008B7010008B7010008B7010008BF
:10014000B7010008B7010008B7010008B7010008AF
:10015000B7010008B7010008B7010008B70100089F
:10016000B7010008B7010008B7010008B70100088F
:10017000B7010008B7010008B7010008000000003F
:10018000B7010008B7010008DFF80CD000F02AF82A
:1001900000480047611D00084805002006488047C8
:1001A00006480047FEE7FEE7FEE7FEE7FEE7FEE75C
:1001B000FEE7FEE7FEE7FEE75D180008890100089C
:1001C000D2B201E000F8012B491EFBD27047002299
:1001D000F6E710B513460A4604461946FFF7F0FF46
:1001E000204610BD064C074D06E0E06840F00103D4
:1001F00094E8070098471034AC42F6D3FFF7C8FFE5
:10020000E01D0008001E0008FEE770472DE9F04FD2
:10021000DFF8EC9100220127A9F1040B85B003253A
:100220004FF00F0C09F1040AABF1040EE0E000BF3F
:1002300007FA02F416EA04037ED00E7906F00306EC
:10024000012E01D0022E1FD186680096560005FAB5
:1002500006F80496009E26EA08060096D1F80C805F
:10026000049E08FA06F8009E48EA0608C0F80880CE
:10027000466891F80480A643C8F3001808FA02F80B
:1002800048EA0608C0F80480D1F804806FEA08063E
:10029000B6070AD1C66AA643C8F3C00494403443E3
:1002A000C4620C79E443A4070AD0C4684FEA420848
:1002B00005FA08F6B4438E6806FA08F62643C660C7
:1002C0000C7904F00304022C11D1D40800EB84064D
:1002D0000296D6F820805407E60E0CFA06F428EAB7
:1002E00004080C69B440029E44EA080434620468BD
:1002F0005600029605FA06F6B4430E7906F0030896
:10030000029E08FA06F848EA0408C0F800804C6823
:1003100014F4403F6BD03B4C266E46F00106266637
:10032000246E22F0030604F001040094364C344499
:100330000294A468960700E059E04FEA16780CFA98
:1003400008F6B443B0F1904F04D0304EB04203D120
:1003500001261BE0002619E02D4EB04201D10226F5
:1003600014E02C4EB04201D103260FE02A4EB042D9
:1003700001D104260AE0294EB04201D1052605E04C
:10038000274EB04201D1062600E0072606FA08F6FD
:100390002643029CA660D9F800404E46D1F804805E
:1003A0009C435FEAC82800D51C433460DAF800405B
:1003B0005646D1F804809C435FEA882800D51C4348
:1003C0003460DBF800405E46D1F804809C435FEA6D
:1003D000883800D51C433460DEF800407646D1F8FA
:1003E00004809C435FEAC83800D51C433460521C2B
:1003F0000B681E46D3407FF41BAF05B000F012B867
:1004000008040140001002400000014000040048C0
:1004100000080048000C0048001000480014004884
:100420000018004830BCBDE8C08F0AB18161704738
:100430008162704701488068704700000800002012
:1004400002488168027811448160704708000020EA
:1004500010B50024032000F071F80F2000F008F818
:1004600008B1012401E000F025F8204610BD00008D
:1004700070B50E4E05460024307898B14FF47A716D
:10048000B1FBF0F00A490968B1FBF0F000F024FC80
:1004900040B9102D06D200222946501E00F02EF839
:1004A000756000E00124204670BD000008000020B7
:1004B00014000020094808B5016E41F001010166F1
:1004C000016E01F001010091816D41F08051816563
:1004D000806D00F08050009008BD000000100240C8
:1004E000002809DB00F01F02012191404009800033
:1004F00000F1E020C0F8001170470000F0B40E4B8E
:100500001B680C46C3F30223C3F10705042D00D971
:100510000425191D072901D2002300E0DB1E012656
:1005200006FA05F1491E214099409E40761E16406C
:100530003143F0BC01F0F5BB0CED00E0064900F0E2
:10054000070208684FF6FF03184040EA0220034AFA
:1005500010430860704700000CED00E00000FA0551
:100560001649B0F5007F0868C0F3412009D0022881
:1005700005D0086820F4C06040F480600860002066
:1005800070470128FBD0086820F4C06040F4007078
:1005900008600B483222006850430A4AB0FBF2F070
:1005A000401C00E0401E4A69520501D50028F9D1DF
:1005B00048694005E3D50320704700000070004003
:1005C0001400002040420F000248006800F4C060A0
:1005D00070470000007000402DE9F0470F4605000D
:1005E0006BD0494E306800F00700B84209D230683D
:1005F00020F0070038433060306800F00700B84250
:100600005BD12878414C80070AD5A868A16801F021
:10061000F001884204D9A16821F0F0010143A160F2
:100620002878C0072CD06868032811D0022812D07F
:10063000216898B1490500293FDAA16821F003013A
:100640000143A160FFF7F6FE804641F2883910E0D1
:1006500021688901EFE721688903ECE78907EAE768
:10066000FFF7E8FEA0EB0801494502D90320BDE8E9
:10067000F087A068696800F00C00B0EB810FEFD143
:10068000287880070AD5A868A16801F0F00188429F
:1006900004D2A16821F0F0010143A160306800F0AC
:1006A0000700B8420BD9306820F0070038433060AB
:1006B000306800F00700B84201D00120D7E7287861
:1006C000400705D5A068E96820F4E0600843A06011
:1006D0002878000706D5A068296920F4605040EA10
:1006E000C100A06000F01AF8A168094AC1F3031123
:1006F000515C01F01F01C8400649086006480068C7
:10070000BDE8F047FFF7B4BE0020024000100240F1
:10071000A01D0008140000200C00002070B5254921
:10072000002318468A68CC6812F00C0204F0030615
:10073000214C4FEA640509D00C2A05D0042A32D096
:10074000082A00D1284670BD012E10D10B681B0766
:1007500004D4D1F89430C3F3032302E00B68C3F34D
:100760000313164E56F82330DAB10C2AEBD1C868C1
:1007700000F00300022818D0032818D01846CA68D1
:10078000CB68C2F30212C3F306234343521CB3FBEC
:10079000F2F2C868C0F34160401C4000B2FBF0F0C8
:1007A00070BD184670BD204670BD2046E7E728465C
:1007B000E5E70000001002400024F400B01D00082E
:1007C0002DE9F84304006FD0FD4DA86800F00C0639
:1007D000E86800F003072078C00664D576B10C2ED7
:1007E00001D1012F0AD0A069002828687AD040F0F2
:1007F00001002860FFF71EFE80465DE02868800744
:1008000002D5A0690028DED0216A2868000703D538
:10081000286800F0F00004E0D5F89400F02202EA25
:100820001010814216D9084600F09EFF00283BD1E7
:10083000286840F0080028602868216A20F0F0004D
:10084000084328606868E16920F47F4040EA01209D
:10085000686016E0286840F0080028602868216A6F
:1008600020F0F000084328606868E16920F47F40C8
:1008700040EA0120686026B9206A00F075FF002870
:10088000D5D1FFF74BFFA968CE4AC1F30311515CE4
:1008900001F01F01C840CC490860CC480068FFF750
:1008A000E7FD00287ED12EE0CAE000BFFFF7C2FDC1
:1008B000A0EB0800022876D828688007F6D52868BB
:1008C00040F0080028602868216A20F0F000084302
:1008D00028606868E16920F47F4040EA0120686090
:1008E00011E0FFE720F001002860FFF7A3FD80463C
:1008F00006E000BFFFF79EFDA0EB08000228DAD853
:1009000028688007F6D42078C00740D0082E18D079
:100910000C2E01D1032F14D06068B0F5803F17D0A2
:10092000B0F5A02F286817D020F480302860286800
:1009300020F4802028606068E0B1FFF77BFD8046EE
:1009400014E02868800322D56068002878D01EE073
:10095000286840F48030EDE740F480202860F7E715
:10096000FFF768FDA0EB08006428A4D8286880037E
:10097000F6D50CE0FFF75EFD804605E0FFF75AFD77
:10098000A0EB0800642896D828688003F6D4207865
:1009900080073BD5042E11D00C2E01D1022F0DD093
:1009A000E06801E086E1D6E0002828681ED040F427
:1009B00080702860FFF73EFD07460CE02868400580
:1009C0000CD5E0680028C1D008E000BFFFF732FD79
:1009D000C01B022893D828684005F7D56868217C99
:1009E00020F0F85040EA016068600FE020F4807069
:1009F0002860FFF71FFD074605E000BFFFF71AFD5F
:100A0000C01B0228B1D828684005F7D42078000719
:100A100029D560690028D5F8940012D040F0010073
:100A2000C5F89400FFF706FD074604E0FFF702FD56
:100A3000C01B022899D8D5F894008007F6D512E09B
:100A400000E120F00100C5F89400FFF7F3FC074631
:100A500005E000BFFFF7EEFCC01B02287BD8D5F8ED
:100A600094008007F6D42078400766D5A86D00274B
:100A7000C00008D4A86D40F08050A865A86D01277B
:100A800000F08050009052480168C90512D40168F6
:100A9000814641F480710160FFF7CCFC804605E09F
:100AA000FFF7C8FCA0EB0800022854D8D9F80000D2
:100AB000C005F5D5A068012816D00528D5F8900006
:100AC00017D020F00100C5F89000D5F8900020F074
:100AD000040000BFC5F89000A06841F28839C0B199
:100AE000FFF7A8FC80460FE0D5F8900040F0010029
:100AF000F0E740F00400C5F89000F5E7FFF79AFC36
:100B0000A0EB0801494526D8D5F890008007F5D517
:100B10000EE0FFF78FFC804606E000BFFFF78AFC7F
:100B2000A0EB0801494516D8D5F890008007F5D408
:100B30001FB1A86D20F08050A865A06AF0B302280C
:100B40000AD00C2E7ED0286820F080702860FFF735
:100B500071FC0446B0E0ACE0E868E26A00F0030132
:100B6000914229D1216B00F07002090110399142A4
:100B700022D1626B00F4FE41B1EB022F1CD1A26BBB
:100B800000F40031072A01D0012200E00022914246
:100B900012D1A18F00F4C00249084905A1F5001146
:100BA000914209D194F8401000F0C060490849060C
:100BB000A1F1007181425ED00C2E0BE072E00000CA
:100BC00000100240A01D0008140000200C000020AE
:100BD0000070004079D02868400176D42868C000B1
:100BE00073D4286820F080702860FFF723FC064645
:100BF00005E000BFFFF71EFC801B022859D82868BB
:100C00008001F7D4D4E90B016FF00F0202EB011160
:100C10000843A18F5204490802EB4151626B41EA3B
:100C20000221084394F840104FF07E42490802EB3D
:100C300041610843A16B090940EA4140E968244A3F
:100C4000114000E041E00843E860286840F080700F
:100C50002860E86840F08070E860FFF7EBFB04462E
:100C600005E000BFFFF7E6FB001B022821D828683B
:100C70008001F7D527E02868800124D4286840F057
:100C800080702860E86840F08070E860FFF7D2FB71
:100C9000044604E0FFF7CEFB001B022809D82868B1
:100CA0008001F7D50FE000BFFFF7C4FB001B02284F
:100CB00002D90320BDE8F88328688001F4D4E868ED
:100CC00004490840E8600020F4E70120F2E7000052
:100CD0008C809DF9FCFFEEFE10B5401EB0F1807FC8
:100CE00001D3012010BD4FF0E02460610F21601797
:100CF00001F017F80020A06107202061002010BD3E
:100D0000704770477047000030B590F83C20012ACA
:100D10003AD0012280F83C20CA688B6822F44072E5
:100D20001A434B6822F480621A430B6822F4006273
:100D30001A430B6922F480521A434B6922F4005281
:100D40001A438B6A22F480421A430B8B22F47022DE
:100D500042EA03420D4D03680024AB4202D00C4D21
:100D6000AB420CD18D8C22F4700242EA0552CD695F
:100D700022F080722A43096A22F000720A435A6400
:100D800080F83C40002030BD022030BD002C0140E6
:100D900000340140F0B590F83C20012A39D00124FC
:100DA00080F83C40022280F83D2002685368956834
:100DB000194E1A4FB24201D0BA4204D123F4700C3A
:100DC0004B6843EA0C0323F0700C0B6843EA0C03F6
:100DD00053600268B24210D0B2F1804F0DD0104B78
:100DE0009A420AD00F4B9A4207D00F4B9A4204D036
:100DF000BA4202D00D4B9A4204D1896825F0800393
:100E00001943916080F83D40002180F83C1008466D
:100E1000F0BD0220F0BD0000002C01400034014074
:100E20000004004000080040000C00400040014069
:100E300010B5040003D094F83D0010B107E0012084
:100E400010BD002084F83C00204600F023F802206A
:100E500084F83D00211D206800F00EFD012084F87B
:100E6000480084F83E0084F83F0084F8400084F88D
:100E7000410084F8420084F8430084F8440084F878
:100E8000450084F8460084F8470084F83D000020BF
:100E900010BD000008B500680B49884212D10B480C
:100EA000816D41F004018165806D002200F0040035
:100EB000009011461E20FFF721FBBDE808401E20D0
:100EC000FFF70EBB08BD0000000800400010024004
:100ED00090F83D10012901D001207047022180F8CF
:100EE0003D100168CA6842F00102CA6000681149F9
:100EF000884211D0B0F1804F0ED00F4988420BD0FC
:100F00000E49884208D00E49884205D00D498842D2
:100F100002D00D49884207D181680C4A1140062948
:100F200006D0B1F5803F03D0016841F001010160B6
:100F300000207047002C01400004004000080040E1
:100F4000000C004000340140004001400700010057
:100F500070B5044690F83C000025012817D0012602
:100F600084F83C60022084F83D00226890682F4B92
:100F7000184020F47F4090600868502838D00DDC7D
:100F800020284FD005DC90B3102811D14AE0022070
:100F900070BD302846D040280AD13BE060282FD0D1
:100FA00070280DD0B0F5805F03D0B0F5005F12D08F
:100FB000012584F83D60002084F83C00284670BD7F
:100FC000CB68D1E90121206800F0BAFC2068816873
:100FD00041F0770109E0CB68D1E90121206800F0F8
:100FE000AFFC2068816841F480418160E1E719E04D
:100FF000CA684968206800F045FE5021206806E074
:10100000CA684968206800F06BFE6021206800F023
:10101000A1FCCEE7CA684968206800F033FE402191
:101020002068F4E7226801461046F0E788FFFEFFDB
:101030002DE9F0410D46040003D094F83D0018B1AD
:1010400008E00120BDE8F081002084F83C00204643
:1010500000F042F8022084F83D00206881681D4AB3
:1010600011408160211D206800F006FC2268906814
:101070009169166A2B68AF69034340F203308143DC
:1010800041EA0721A868EF6908434FF6FC4188430D
:10109000E96840EA0720014328692F6A000140EA15
:1010A0000730084369686D6926F0AA0646EA051507
:1010B000294393602268906154F8480B0162012033
:1010C00004F81F096075A075E07620772075002070
:1010D000B8E70000F8BFFEFF30B587B00446142122
:1010E0006846FFF774F8246800221F4902234FF076
:1010F0009040B4F1804F1DD01C4DAC4218D18C6D86
:1011000044F002048C658C6D04F002040594CC6CF0
:1011100044F00104CC64C96C01F001010591C021C7
:101120000091CDE901326946CDE90323FFF76EF85E
:1011300007B030BD8C6D44F001048C658C6D04F0FB
:1011400001040594CC6C44F00104CC64C96C01F03A
:101150000101059103210091CDE901320121CDE981
:1011600003216946E2E7000000100240000400404D
:1011700070472DE9F04104460068C66805694FF0E4
:101180000007A90713D5B10711D5F91E0161012088
:101190002077206880698007204602D0FFF7E8FFAB
:1011A00004E000F0B5F8204600F08AF927776807D8
:1011B00016D5700714D521686FF00400086102206D
:1011C00020772068806910F4407F204602D0FFF726
:1011D000CFFF04E000F09CF8204600F071F927777B
:1011E000280715D5300713D521686FF0080008616E
:1011F000042020772068C0698007204602D0FFF7CE
:10120000B7FF04E000F084F8204600F059F9277792
:10121000E80616D5F00614D521686FF010000861B5
:10122000082020772068C06910F4407F204602D053
:10123000FFF79EFF04E000F06BF8204600F040F955
:101240002777E80708D0F00706D021686FF0010083
:101250000861204600F036F9280601D4A80408D514
:10126000300606D521686FF4025008612046FFF76A
:1012700048FDE80508D5300606D521686FF4807072
:1012800008612046FFF73CFD680608D5700606D5C4
:1012900021686FF040000861204600F01FF9A806A1
:1012A0000AD5B00608D521686FF0200008612046F5
:1012B000BDE8F041FFF726BDBDE8F08110B586B06E
:1012C000044614216846FEF782FF0F4920688842D1
:1012D00017D10E48C16C41F00101C164C06C694670
:1012E00000F0010005904FF4407000900220019042
:1012F000002002900390012004904FF09040FEF7F0
:1013000085FF06B010BD0000002C01400010024017
:10131000704770B5044690F83C0000260D46012841
:101320000BD0012084F83C000C2A4AD007DC82B1A3
:10133000042A20D0082A06D131E0022070BD102AEC
:1013400053D0142A63D00126002084F83C00304694
:1013500070BD206800F006FB2068816941F008013B
:1013600081612068816921F00401816120688169BF
:101370002A69114311E0206800F046FB206881696A
:1013800041F4006181612068816921F4806181619B
:10139000206881692A6941EA02218161D4E72068D5
:1013A00000F07CFB2068C16941F00801C161206840
:1013B000C16921F00401C1612068C1692A69114332
:1013C00011E0206800F0B4FB2068C16941F40061BD
:1013D000C1612068C16921F48061C1612068C1696F
:1013E0002A6941EA0221C161AEE7206800F0DAFB18
:1013F0002068416D41F0080141652068416D21F090
:10140000040141652068416D2A69114311E020689B
:1014100000F000FC2068416D41F4006141652068E6
:10142000416D21F4806141652068416D2A6941EA7E
:101430000221416588E710B5040003D094F83D000F
:1014400010B107E0012010BD002084F83C002046C8
:1014500000F022F8022084F83D00211D206800F0F1
:101460000BFA012084F8480084F83E0084F83F001D
:1014700084F8400084F8410084F8420084F8430076
:1014800084F8440084F8450084F8460084F8470056
:1014900084F83D00002010BD08B500680649884268
:1014A00008D10648016E41F400610166006E00F447
:1014B0000060009008BD0000002C014000100240B8
:1014C000704700000349884202D103490120087097
:1014D00070470000FC000020000000207047FEE77D
:1014E0002DE9F04186B014216846FEF770FE1B48D6
:1014F000C16C41F00101C164C16C01F001010591B1
:10150000C16C41F00401C164C06C154F00F00400CF
:101510004FF440740590002221463846FEF785FFBF
:101520004FF480664FF09048002231464046FEF767
:101530007CFF0125CDE90045002402946946384628
:101540000394FEF763FE0096CDE9015469464046D8
:101550000394FEF75BFE06B0BDE8F0810010024088
:101560000008004810B596B00024129413941C2172
:101570000BA81494FEF72BFE2C216846FEF727FEDD
:101580002748264901604F21C0E9011440F2E731A4
:10159000C0E9031444618461FFF74DFF08B172B6DE
:1015A000FEE71294139412A91D481494FFF7F2FB5E
:1015B00008B172B6FEE76020CDE90B040D940E94DD
:1015C0000F94109400220BA915481194FFF7A1FE67
:1015D00008B172B6FEE704220BA91148FFF799FE85
:1015E00008B172B6FEE700944FF40050CDE9044014
:1015F00001940294039400030694CDE907400994F2
:10160000694607480A94FFF77FFB08B172B6FEE708
:101610000348FFF753FE16B010BD0000002C014038
:101620001800002010B58CB024216846FEF7CFFDCD
:101630000024154809940A944FF080410B94C0E9A6
:101640000014611EC0E90241046184610320CDE9F8
:1016500000040120CDE902040494CDE9054007947B
:10166000694609480894FFF7E3FC08B172B6FEE743
:10167000099409A904480B94FFF78CFB002801D0BA
:1016800072B6FEE70CB010BD6400002010B58CB03F
:1016900024216846FEF79BFD0024164809940A940D
:1016A00013490B94C0E900144FF6FF71C0E90241E1
:1016B000046184610320CDE900040120CDE9020426
:1016C0000494CDE90540079469460A480894FFF759
:1016D000AFFC08B172B6FEE7099409A905480B945E
:1016E000FFF758FB002801D072B6FEE70CB010BD22
:1016F00000040040B000002010B588B00024174856
:10170000009401940294039404940594124906945D
:1017100001604F21C0E9011442F20F71C0E90314C6
:101720008461FFF785FB08B172B6FEE74FF4805085
:10173000009069460948FFF70BFC08B172B6FEE756
:10174000049404A905480694FFF724FB002801D05F
:1017500072B6FEE708B010BD00080040FC00002093
:10176000FEE7FEE770470000F8B51C4D0646002472
:10177000A86DC00002D5FEF727FF0DE0A86D40F070
:101780008050A865A86D00F080500090FEF71CFF07
:10179000A96D21F08051A965B0F5007F04D0802E9D
:1017A00007D94FF003040AE0802E08D9A02E01D8F3
:1017B00004E001D1022402E0702E00D10124084887
:1017C000016821F0070121430160006800F0070073
:1017D000A04201D00120F8BD0020F8BD0010024059
:1017E000002002407047FEF72BBE00B597B04421A1
:1017F0006846FEF7ECFC142111A8FEF7E8FC4FF454
:101800000070FEF7ADFE08B172B6FEE70220C1011E
:1018100003911021009004910A900121CDE90B0160
:101820000A210D910721CDE90E1010906846FEF7B0
:10183000C7FF08B172B6FEE70F2011900320129087
:101840000020139014901590042111A8FEF7C4FEF7
:10185000002801D072B6FEE717B000BD024801684B
:1018600041F470010160704788ED00E00148FFF726
:1018700080BC0000FC0000202DE9F0470268284BE6
:10188000284D294E294F2A4C4FF0804A984209D0C2
:10189000504507D0A84205D0B04203D0B84201D08D
:1018A000A04204D122F0700C4A6842EA0C02DFF830
:1018B00084C0DFF88480DFF8849098420FD05045D0
:1018C0000DD0A8420BD0B04209D0B84207D0A042F8
:1018D00005D0604503D0404501D0484503D122F4EE
:1018E0004075CA682A434D6922F080022A438D68F8
:1018F000C5620D688562984207D0A04205D0604558
:1019000003D0404501D0484501D109690163016810
:1019100041F004010160012141610260BDE8F087EE
:10192000002C01400004004000080040000C004072
:1019300000340140004001400044014000480140A3
:1019400010B5846842EA032224F47F440A43224308
:10195000826010BD826822F070020A4342F00701E3
:10196000816070472DE9F043056A026A22F00102A6
:101970000262436882691E4C25F0020522400C6811
:1019800022F0030214438A681B4E2A43194D1B4F51
:10199000DFF86CC0DFF86C90A84207D0B04205D0E9
:1019A000B84203D0604501D048450AD1D0F8208024
:1019B00028F00408C0F8208022F00808CA6842EA2B
:1019C0000802A84207D0B04205D0B84203D0604513
:1019D00001D0484505D14D6923F440731D438B69FF
:1019E0002B4343608461496841630262BDE8F08330
:1019F0008FFFFEFF002C01400034014000400140F9
:101A00000044014000480140F0B5056A026A22F036
:101A100010020262426883691A4C1C4E23400C6813
:101A200023F4407343EA042425F020038D6843EA3D
:101A30000513154DA84201D0B04208D1076A27F01E
:101A400040070762CF6823F0800343EA0713A842E8
:101A50000AD0B04208D00E4DA84205D00D4DA84284
:101A600002D00D4DA84207D14D6922F4406242EAEE
:101A700085028D6942EA850242608461496881631A
:101A80000362F0BDFF8FFFFE002C014000340140D7
:101A9000004001400044014000480140F0B5056AA3
:101AA000026A22F4807202624268C3691A4C1C4EB8
:101AB00023400C6823F003031C4325F400738D6856
:101AC00043EA0523154DA84201D0B04208D1076A68
:101AD00027F480670762CF6823F4006343EA072393
:101AE000A8420AD0B04208D00E4DA84205D00E4DF3
:101AF000A84202D00D4DA84207D14D6922F44052B0
:101B000042EA05128D6942EA05124260C4614968E1
:101B1000C1630362F0BD00008FFFFEFF002C014097
:101B200000340140004001400044014000480140B1
:101B300030B5046A026A22F4805202624268C369C4
:101B4000124D24F400542B400D6823F4407343EAF3
:101B500005238D6844EA05340D4DA8420BD00D4D88
:101B6000A84208D00C4DA84205D00C4DA84202D086
:101B70000B4DA84204D14D6922F4804242EA8512FD
:101B80004260C36149680164046230BDFF8FFFFE9B
:101B9000002C01400034014000400140004401405D
:101BA0000048014030B5056A026A22F480320262C0
:101BB0004268436D114C23400C681C4325F40033EC
:101BC0000D8943EA05430E4DA8420BD00D4DA842A6
:101BD00008D00D4DA84205D00C4DA84202D00C4DA6
:101BE000A84204D14D6922F4803242EA05224260C3
:101BF000446549688165036230BD00008FFFFEFFC8
:101C0000002C0140003401400040014000440140EC
:101C10000048014030B5046A026A22F48012026270
:101C20004268436D114D24F400142B400D6843EAC3
:101C300005230D8944EA05540D4DA8420BD00D4DE6
:101C4000A84208D00C4DA84205D00C4DA84202D0A5
:101C50000B4DA84204D14D6922F4802242EA85222C
:101C6000426043654968C165046230BDFF8FFFFE75
:101C7000002C01400034014000400140004401407C
:101C80000048014010B5036A046A24F001040462AC
:101C90000E4CA0420BD00E4CA04208D00D4CA042DE
:101CA00005D00D4CA04202D00C4CA04203D1046AD6
:101CB00024F004040462846924F0F00444EA021469
:101CC00023F00A020A438461026210BD002C014025
:101CD0000034014000400140004401400048014000
:101CE00010B5036A046A24F0100404620A4CA0428E
:101CF00002D00A4CA04203D1046A24F040040462DA
:101D0000846923F0A00324F4704444EA023243EAD5
:101D100001118261016210BD002C014000340140BC
:101D2000FEE70907090E002804DB00F1E02080F837
:101D30000014704700F00F0000F1E02080F8141D3F
:101D4000704702E008C8121F08C1002AFAD1704784
:101D50007047002001E001C1121F002AFBD170472B
:101D6000FEF776FBFFF741FDFFF7BAFBFFF7FAFB43
:101D7000FFF758FCFFF78AFCFFF7BEFC0648FFF7A9
:101D8000A7F8064800210278002AFCD04268521CBD
:101D900042600170F7E70000FC0000200000002016
:101DA000000000000000000001020304060708090B
:101DB000A0860100400D0300801A060000350C00CB
:101DC00040420F0080841E0000093D0000127A008E
:101DD0000024F40000366E010048E801006CDC02CB
:101DE000001E00080000002018000000421D00082E
:101DF000181E00081800002030050000521D0008C1
:101E000000000000000000000100000010000000C1
:081E10000000000000093D0084
:040000050800018965
:00000001FF
