:020000040800F2
:100000006010002029020008AF250008E122000846
:10001000AD2500080B050008B534000800000000FD
:10002000000000000000000000000000652800083B
:100030000D05000800000000B12500086728000831
:10004000430200084302000843020008430200087C
:10005000430200084302000843020008430200086C
:10006000430200084302000843020008430200085C
:10007000430200084302000843020008430200084C
:10008000430200084302000843020008430200083C
:10009000430200084302000843020008430200082C
:1000A000430200084302000843020008430200081C
:1000B0004302000843020008ED280008430200083C
:1000C00043020008430200084302000843020008FC
:1000D00043020008A9340008430200084302000854
:1000E00043020008430200084302000843020008DC
:1000F00043020008430200084302000843020008CC
:1001000043020008430200084302000843020008BB
:1001100043020008430200084302000843020008AB
:10012000430200084302000843020008430200089B
:10013000430200084302000843020008430200088B
:10014000430200084302000843020008430200087B
:10015000430200084302000843020008430200086B
:10016000430200084302000843020008430200085B
:100170004302000843020008430200080000000098
:10018000430200084302000800F002F800F03CF8C7
:100190000AA090E8000C82448344AAF10107DA45E2
:1001A00001D100F031F8AFF2090EBAE80F0013F0F8
:1001B000010F18BFFB1A43F001031847EC3D000084
:1001C0000C3E0000103A24BF78C878C1FAD8520714
:1001D00024BF30C830C144BF04680C6070470000C1
:1001E0000023002400250026103A28BF78C1FBD840
:1001F000520728BF30C148BF0B6070471FB503F0DE
:10020000A9FE1FBD10B510BD00F046F91146FFF75D
:10021000F5FF03F0DDFA00F064F903B4FFF7F2FF35
:1002200003BC00F06BF9000009488047094800470B
:10023000FEE7FEE7FEE7FEE7FEE7FEE7FEE7FEE796
:10024000FEE7FEE704480549054A064B70470000F3
:10025000DD28000889010008600A002060100020E5
:10026000600C0020600C002053EA020C00F0698052
:100270002DE9F04B4FF00006002B1FBFB3FA83F5BA
:1002800003FA05F424FA05F65E4012BF1643B2FAEB
:1002900082F502FA05F4C5F120051EBF22FA05FC1D
:1002A00044EA0C04203556EA044C4FEA144418BFC3
:1002B000641C4FF000084FF00009904271EB030CF2
:1002C00039D3002919BFB1FA81F701FA07F6B0FA5C
:1002D00080F700FA07F6C7F120071EBF20FA07FCD7
:1002E00046EA0C062037B6FBF4FCA7EB0507103FE7
:1002F00007F01F0BCBF120060CFA0BFB2CFA06F6CD
:1003000044BFB3460026202FA4BF5E464FF0000B2B
:100310005BEA060C08BF4FF0010B19EB0B09ABFBB6
:10032000027C48EB0608C01B06FB02CC0BFB03CC8F
:1003300071EB0C01C1E70B46024641464846BDE859
:10034000F08B13B54FF000004FF00001AFF30080C9
:10035000BDE81C407047032A40F2308010F0030CC7
:1003600000F0158011F8013BBCF1020F624498BF08
:1003700011F801CB00F8013B38BF11F8013BA2F1A5
:10038000040298BF00F801CB38BF00F8013B11F020
:10039000030300F04F80083AC0F0088051F8043B96
:1003A000083A51F804CBA0E80810F5E7121D5CBF2D
:1003B00051F8043B40F8043BAFF30080D20724BF60
:1003C00011F8013B11F801CB48BF11F8012B24BFF4
:1003D00000F8013B00F801CB48BF00F8012B704743
:1003E0004FF0000200B5134694469646203922BFCE
:1003F000A0E80C50A0E80C50B1F12001BFF4F7AF19
:10040000090728BFA0E80C5048BF0CC05DF804EBFA
:10041000890028BF40F8042B08BF704748BF20F868
:10042000022B11F0804F18BF00F8012B7047704766
:100430007047704710B5203AC0F00B80B1E81850F3
:10044000203AA0E81850B1E81850A0E81850BFF4BE
:10045000F5AF5FEA027C24BFB1E81850A0E818505D
:1004600044BF18C918C0BDE810405FEA827C24BFB1
:1004700051F8043B40F8043B08BF7047D20728BF3F
:1004800031F8023B48BF11F8012B28BF20F8023B8E
:1004900048BF00F8012B7047754600F02BF8AE46B8
:1004A00005006946534620F00700854618B020B580
:1004B000FFF7C8FEBDE820404FF000064FF00007F0
:1004C0004FF000084FF0000B21F00701AC46ACE8FC
:1004D000C009ACE8C009ACE8C009ACE8C0098D4669
:1004E000704710B50446AFF300802046BDE81040C9
:1004F000FFF793BE00487047000A0020014918200A
:10050000ABBEFEE7260002007047FEE7704772B6FA
:10051000FEE710B540B190F825100022022905D061
:100520000421C16380F82420012010BD01680B68FC
:1005300023F001030B6001680B6823F00E030B60CE
:1005400090F84410046C01F01C03012101FA03F33C
:10055000636080F8251080F82420002010BD10B5BD
:1005600090F825100024022903D00421C16301243E
:100570001AE001680A6822F001020A6001680A684C
:1005800022F00E020A6090F84410036C01F01C0285
:10059000012101FA02F25A6080F82510002180F84A
:1005A0002410816B01B18847204610BD2DE9F04F22
:1005B000DFF8EC9100220127A9F1040B85B0032597
:1005C0004FF00F0C09F1040AABF1040EE0E000BF9C
:1005D00007FA02F416EA04037ED00E7906F0030649
:1005E000012E01D0022E1FD186680096560005FA12
:1005F00006F80496009E26EA08060096D1F80C80BC
:10060000049E08FA06F8009E48EA0608C0F808802A
:10061000466891F80480A643C8F3001808FA02F867
:1006200048EA0608C0F80480D1F804806FEA08069A
:10063000B6070AD1C66AA643C8F3C004944034433F
:10064000C4620C79E443A4070AD0C4684FEA4208A4
:1006500005FA08F6B4438E6806FA08F62643C66023
:100660000C7904F00304022C11D1D40800EB8406A9
:100670000296D6F820805407E60E0CFA06F428EA13
:1006800004080C69B440029E44EA08043462046819
:100690005600029605FA06F6B4430E7906F00308F2
:1006A000029E08FA06F848EA0408C0F800804C6880
:1006B00014F4403F6BD03B4C266E46F00106266694
:1006C000246E22F0030604F001040094364C3444F6
:1006D0000294A468960700E059E04FEA16780CFAF5
:1006E00008F6B443B0F1904F04D0304EB04203D17D
:1006F00001261BE0002619E02D4EB04201D1022652
:1007000014E02C4EB04201D103260FE02A4EB04235
:1007100001D104260AE0294EB04201D1052605E0A8
:10072000274EB04201D1062600E0072606FA08F659
:100730002643029CA660D9F800404E46D1F80480BA
:100740009C435FEAC82800D51C433460DAF80040B7
:100750005646D1F804809C435FEA882800D51C43A4
:100760003460DBF800405E46D1F804809C435FEAC9
:10077000883800D51C433460DEF800407646D1F856
:1007800004809C435FEAC83800D51C433460521C87
:100790000B681E46D3407FF41BAF05B000F012B8C3
:1007A000080401400010024000000140000400481D
:1007B00000080048000C00480010004800140048E1
:1007C0000018004830BCBDE8C08F0AB18161704795
:1007D0008162704701488068704700001400002063
:1007E000024881680278114481607047140000203B
:1007F00010B50024032000F071F80F2000F008F875
:1008000008B1012401E000F025F8204610BD0000E9
:1008100070B50E4E05460024307898B14FF47A71C9
:10082000B1FBF0F00A490968B1FBF0F000F020FEDE
:1008300040B9102D06D200222946501E00F02EF895
:10084000756000E00124204670BD00001400002007
:1008500020000020094808B5016E41F00101016641
:10086000016E01F001010091816D41F080518165BF
:10087000806D00F08050009008BD00000010024024
:10088000002809DB00F01F0201219140400980008F
:1008900000F1E020C0F8001170470000F0B40E4BEA
:1008A0001B680C46C3F30223C3F10705042D00D9CE
:1008B0000425191D072901D2002300E0DB1E0126B3
:1008C00006FA05F1491E214099409E40761E1640C9
:1008D0003143F0BC02F0EFBD0CED00E0064900F042
:1008E000070208684FF6FF03184040EA0220034A57
:1008F00010430860704700000CED00E00000FA05AE
:100900001649B0F5007F0868C0F3412009D00228DD
:1009100005D0086820F4C06040F4806008600020C2
:1009200070470128FBD0086820F4C06040F40070D4
:1009300008600B483222006850430A4AB0FBF2F0CC
:10094000401C00E0401E4A69520501D50028F9D13B
:1009500048694005E3D5032070470000007000405F
:100960002000002040420F000248006800F4C060F0
:1009700070470000007000402DE9F84F0446002742
:100980000088E54D3E46010504F1200B1DD5606E43
:1009900078B1B0F5800F11D0B0F5000F04D0B0F5EC
:1009A000400F22D001270FE0E86840F48030E86073
:1009B0001BE00021201D01F0FDFD03E00021584651
:1009C00001F08EFE070010D03E462088C00426D5D8
:1009D000A06EC0B1B0F1807F1AD0B0F1007F0DD011
:1009E000B0F1407F19D0012718E0D5F88800616E7A
:1009F00020F440000843C5F88800E6E7E86840F4C2
:100A00008030E86009E00021201D01F0D3FD03E003
:100A10000021584601F064FE0746F7B13E462068C3
:100A200080033AD5A86D4FF00008C00009D4A86D26
:100A300040F08050A865A86D4FF0010800F080508C
:100A40000090DFF8D8A2DAF8001041F48071CAF8FB
:100A50000010FFF7BFFE814610E0D5F88800A16EB8
:100A600020F040700843C5F88800D8E7FFF7B2FED1
:100A7000A0EB0900022801D9032705E0DAF80000FD
:100A8000C005F3D5002F7CD04FEA0706B8F1000F60
:100A900003D0A86D20F08050A8652078C00707D04B
:100AA000D5F88800A16B20F003000843C5F8880042
:100AB0002078800707D5D5F88800E16B20F00C007E
:100AC0000843C5F888002078400707D5D5F8880086
:100AD000216C20F030000843C5F88800207800071A
:100AE00007D5D5F88800616C20F0C0000843C5F830
:100AF00088002078C00607D5D5F88800A16C20F4BE
:100B000040700843C5F888002078800607D5D5F8DE
:100B10008800E16C20F440600843C5F88800208814
:100B2000800507D5D5F88800E16D20F44020084302
:100B3000C5F888002088400507D5D5F88800216EC3
:100B400020F440100843C5F888002078400607D5F7
:100B5000D5F88800216D20F440500843C5F888007E
:100B60002078000607D5D5F88800616D20F4404054
:100B70000843C5F888002088C00509D5D5F8880045
:100B800000E01CE0A16D20F440300843C5F8880067
:100B900020884FF0006780044FF080684FD5D5F86B
:100BA0008800E16E20F040600843C5F88800E06EE0
:100BB000B8423CD1E86840F48010E8603FE0D5F8E6
:100BC000900010F4407015D0D4F88410814211D0F8
:100BD000D5F89000D5F8901020F4407041F48031A1
:100BE000C5F89010D5F8901021F48031C5F8901018
:100BF000C5F89000C00710D0FFF7ECFD074641F2A2
:100C0000883906E0FFF7E6FDC11B494501D90326F7
:100C10003CE7D5F890008007F4D5D5F89000D4F8DB
:100C2000841020F440700843C5F890002EE740453A
:100C300005D10121201D01F0BDFC00B10646206850
:100C4000000317D5D5F88800216F20F040600843D5
:100C5000C5F88800206FB84204D1E86840F48010DD
:100C6000E86007E0404505D10121201D01F0A2FC0C
:100C700000B106462068400317D5D5F88800616F9B
:100C800020F040600843C5F88800606FB84204D186
:100C9000E86840F48010E86007E0404505D1012194
:100CA000201D01F087FC00B10646208840041AD5BB
:100CB000D5F88800A16F20F040500843C5F888009F
:100CC000A06FB0F1805F03D0B0F1005F05D00AE003
:100CD0000221201D01F06EFC03E00221584601F0C4
:100CE000FFFC00B106462088000407D5D5F888002F
:100CF000E16F20F080400843C5F888002068C003F9
:100D000007D555F8880FD4F8801020F0004008432C
:100D10002860304600F004B8001002400070004027
:100D200018BCBDE8E08F00002DE9F0470F46050034
:100D30006BD0494E306800F00700B84209D23068E5
:100D400020F0070038433060306800F00700B842F8
:100D50005BD12878414C80070AD5A868A16801F0CA
:100D6000F001884204D9A16821F0F0010143A1609B
:100D70002878C0072CD06868032811D0022812D028
:100D8000216898B1490500293FDAA16821F00301E3
:100D90000143A160FFF71EFD804641F2883910E053
:100DA00021688901EFE721688903ECE78907EAE711
:100DB000FFF710FDA0EB0801494502D90320BDE86B
:100DC000F087A068696800F00C00B0EB810FEFD1EC
:100DD000287880070AD5A868A16801F0F001884248
:100DE00004D2A16821F0F0010143A160306800F055
:100DF0000700B8420BD9306820F007003843306054
:100E0000306800F00700B84201D00120D7E7287809
:100E1000400705D5A068E96820F4E0600843A060B9
:100E20002878000706D5A068296920F4605040EAB8
:100E3000C100A06000F03EF8A168094AC1F30311A7
:100E4000515C01F01F01C84006490860064800686F
:100E5000BDE8F047FFF7DCBC002002400010024074
:100E6000603F0008200000201800002005480649C7
:100E700000688968054AC1F30221515C01F01F0135
:100E8000C84070472000002000100240A03F00082A
:100E90000548064900688968054AC1F3C221515CCA
:100EA00001F01F01C84070472000002000100240E0
:100EB000A03F000870B52549002318468A68CC6811
:100EC00012F00C0204F00306214C4FEA640509D02D
:100ED0000C2A05D0042A32D0082A00D1284670BD39
:100EE000012E10D10B681B0704D4D1F89430C3F342
:100EF000032302E00B68C3F30313164E56F82330A6
:100F0000DAB10C2AEBD1C86800F00300022818D02F
:100F1000032818D01846CA68CB68C2F30212C3F37C
:100F200006234343521CB3FBF2F2C868C0F341608E
:100F3000401C4000B2FBF0F070BD184670BD20466A
:100F400070BD2046E7E72846E5E7000000100240B4
:100F50000024F400703F00082DE9F84304006FD02E
:100F6000FD4DA86800F00C06E86800F00307207843
:100F7000C00664D576B10C2E01D1012F0AD0A0692C
:100F8000002828687AD040F001002860FFF722FC92
:100F900080465DE02868800702D5A0690028DED081
:100FA000216A2868000703D5286800F0F00004E0F3
:100FB000D5F89400F02202EA1010814216D90846B2
:100FC00001F012FC00283BD1286840F0080028609E
:100FD0002868216A20F0F000084328606868E16909
:100FE00020F47F4040EA0120686016E0286840F065
:100FF000080028602868216A20F0F0000843286073
:101000006868E16920F47F4040EA0120686026B901
:10101000206A01F0E9FB0028D5D1FFF74BFFA96852
:10102000CE4AC1F30311515C01F01F01C840CC4905
:101030000860CC480068FFF7EBFB00287ED12EE06B
:10104000CAE000BFFFF7C6FBA0EB0800022876D875
:1010500028688007F6D5286840F0080028602868CE
:10106000216A20F0F000084328606868E16920F4F4
:101070007F4040EA0120686011E0FFE720F00100B6
:101080002860FFF7A7FB804606E000BFFFF7A2FB42
:10109000A0EB08000228DAD828688007F6D4207868
:1010A000C00740D0082E18D00C2E01D1032F14D029
:1010B0006068B0F5803F17D0B0F5A02F286817D032
:1010C00020F480302860286820F480202860606840
:1010D000E0B1FFF77FFB804614E02868800322D54B
:1010E0006068002878D01EE0286840F48030EDE782
:1010F00040F480202860F7E7FFF76CFBA0EB0800C6
:101100006428A4D828688003F6D50CE0FFF762FBBA
:10111000804605E0FFF75EFBA0EB0800642896D848
:1011200028688003F6D4207880073BD5042E11D0A0
:101130000C2E01D1022F0DD0E06801E086E1D6E04F
:10114000002828681ED040F480702860FFF742FB1A
:1011500007460CE0286840050CD5E0680028C1D09F
:1011600008E000BFFFF736FBC01B022893D82868B1
:101170004005F7D56868217C20F0F85040EA01600E
:1011800068600FE020F480702860FFF723FB0746BB
:1011900005E000BFFFF71EFBC01B0228B1D828687E
:1011A0004005F7D42078000729D560690028D5F8D4
:1011B000940012D040F00100C5F89400FFF70AFB3C
:1011C000074604E0FFF706FBC01B022899D8D5F8B4
:1011D00094008007F6D512E000E120F00100C5F888
:1011E0009400FFF7F7FA074605E000BFFFF7F2FAB1
:1011F000C01B02287BD8D5F894008007F6D420784D
:10120000400766D5A86D0027C00008D4A86D40F03F
:101210008050A865A86D012700F0805000905248CA
:101220000168C90512D40168814641F480710160EA
:10123000FFF7D0FA804605E0FFF7CCFAA0EB0800F4
:10124000022854D8D9F80000C005F5D5A0680128B7
:1012500016D00528D5F8900017D020F00100C5F869
:101260009000D5F8900020F0040000BFC5F8900071
:10127000A06841F28839C0B1FFF7ACFA80460FE0B0
:10128000D5F8900040F00100F0E740F00400C5F808
:101290009000F5E7FFF79EFAA0EB0801494526D834
:1012A000D5F890008007F5D50EE0FFF793FA804659
:1012B00006E000BFFFF78EFAA0EB0801494516D8FB
:1012C000D5F890008007F5D41FB1A86D20F08050AC
:1012D000A865A06AF0B302280AD00C2E7ED0286838
:1012E00020F080702860FFF775FA0446B0E0ACE0AB
:1012F000E868E26A00F00301914229D1216B00F015
:10130000700209011039914222D1626B00F4FE4152
:10131000B1EB022F1CD1A26B00F40031072A01D0DF
:10132000012200E00022914212D1A18F00F4C002FC
:1013300049084905A1F50011914209D194F84010DE
:1013400000F0C06049084906A1F1007181425ED0F9
:101350000C2E0BE072E0000000100240603F00081D
:1013600020000020180000200070004079D028687C
:10137000400176D42868C00073D4286820F08070BB
:101380002860FFF727FA064605E000BFFFF722FABC
:10139000801B022859D828688001F7D4D4E90B01B2
:1013A0006FF00F0202EB01110843A18F52044908AC
:1013B00002EB4151626B41EA0221084394F840106C
:1013C0004FF07E42490802EB41610843A16B0909D5
:1013D00040EA4140E968244A114000E041E0084306
:1013E000E860286840F080702860E86840F080700D
:1013F000E860FFF7EFF9044605E000BFFFF7EAF900
:10140000001B022821D828688001F7D527E028682A
:10141000800124D4286840F080702860E86840F09B
:101420008070E860FFF7D6F9044604E0FFF7D2F9D0
:10143000001B022809D828688001F7D50FE000BFFB
:10144000FFF7C8F9001B022802D90320BDE8F88382
:1014500028688001F4D4E86804490840E860002066
:10146000F4E70120F2E700008C809DF9FCFFEEFE1E
:1014700010B5401EB0F1807F01D3012010BD4FF0A8
:10148000E02460610F21601702F015F80020A061D0
:1014900007202061002010BD704770477047000092
:1014A00030B590F83C20012A3AD0012280F83C2047
:1014B000CA688B6822F440721A434B6822F4806237
:1014C0001A430B6822F400621A430B6922F480521B
:1014D0001A434B6922F400521A438B6A22F4804269
:1014E0001A430B8B22F4702242EA03420D4D03682B
:1014F0000024AB4202D00C4DAB420CD18D8C22F4B7
:10150000700242EA0552CD6922F080722A43096ACC
:1015100022F000720A435A6480F83C40002030BD3B
:10152000022030BD002C014000340140F0B590F89D
:101530003C20012A39D0012480F83C40022280F866
:101540003D20026853689568194E1A4FB24201D087
:10155000BA4204D123F4700C4B6843EA0C0323F025
:10156000700C0B6843EA0C0353600268B24210D05F
:10157000B2F1804F0DD0104B9A420AD00F4B9A42D5
:1015800007D00F4B9A4204D0BA4202D00D4B9A4278
:1015900004D1896825F080031943916080F83D40AB
:1015A000002180F83C100846F0BD0220F0BD00008C
:1015B000002C0140003401400004004000080040BD
:1015C000000C00400040014010B5040003D094F826
:1015D0003D0010B107E0012010BD002084F83C0060
:1015E000204600F023F8022084F83D00211D2068E9
:1015F00001F082F9012084F8480084F83E0084F864
:101600003F0084F8400084F8410084F8420084F8E8
:10161000430084F8440084F8450084F8460084F8C8
:10162000470084F83D00002010BD000008B50068A8
:101630000B49884212D10B48816D41F0040181654C
:10164000806D002200F00400009011461E20FFF77C
:1016500025F9BDE808401E20FFF712B908BD0000BB
:10166000000800400010024090F83D10012901D010
:1016700001207047022180F83D100168CA6842F0DD
:101680000102CA6000681149884211D0B0F1804F50
:101690000ED00F4988420BD00E49884208D00E491F
:1016A000884205D00D49884202D00D49884207D1B1
:1016B00081680C4A1140062906D0B1F5803F03D05D
:1016C000016841F00101016000207047002C0140D9
:1016D0000004004000080040000C004000340140BD
:1016E000004001400700010070B5044690F83C003E
:1016F0000025012817D0012684F83C60022084F8D8
:101700003D00226890682F4B184020F47F40906085
:101710000868502838D00DDC20284FD005DC90B365
:10172000102811D14AE0022070BD302846D0402850
:101730000AD13BE060282FD070280DD0B0F5805F33
:1017400003D0B0F5005F12D0012584F83D60002081
:1017500084F83C00284670BDCB68D1E9012120689F
:1017600001F03BF92068816841F0770109E0CB681E
:10177000D1E90121206801F030F92068816841F445
:1017800080418160E1E719E0CA684968206801F09A
:10179000C7FA5021206806E0CA684968206801F04D
:1017A000EDFA6021206801F022F9CEE7CA684968A5
:1017B000206801F0B5FA40212068F4E7226801466C
:1017C0001046F0E788FFFEFF2DE9F0410D460400CA
:1017D00003D094F83D0018B108E00120BDE8F08185
:1017E000002084F83C00204600F042F8022084F8F3
:1017F0003D00206881681D4A11408160211D2068DC
:1018000001F07AF8226890689169166A2B68AF69CE
:10181000034340F20330814341EA0721A868EF699E
:1018200008434FF6FC418843E96840EA072001433A
:1018300028692F6A000140EA0730084369686D692A
:1018400026F0AA0646EA05152943936022689061AE
:1018500054F8480B0162012004F81F096075A07557
:10186000E076207720750020B8E70000F8BFFEFF83
:1018700030B587B0044614216846FEF7B1FD2468F0
:1018800000221F4902234FF09040B4F1804F1DD039
:101890001C4DAC4218D18C6D44F002048C658C6DEB
:1018A00004F002040594CC6C44F00104CC64C96CCF
:1018B00001F001010591C0210091CDE90132694695
:1018C000CDE90323FEF772FE07B030BD8C6D44F006
:1018D00001048C658C6D04F001040594CC6C44F01B
:1018E0000104CC64C96C01F0010105910321009150
:1018F000CDE901320121CDE903216946E2E700008B
:10190000001002400004004070B590F83E600446AC
:1019100090F83F5090F8443090F84520022021B1D3
:1019200004290ED0012E1BD114E0012E18D1012B59
:1019300016D184F83E0084F844000122002120687A
:1019400020E0012D0CD1012A0AD184F83F0084F84F
:10195000450014E0012D03D1012B01D1012A01D052
:10196000012070BD84F83E0084F83F0084F84400F4
:1019700084F8450001220021206801F021F80122AD
:101980000421206801F01CF82068016841F0010181
:101990000160002070BD70472DE9F04104460068E9
:1019A000C66805694FF00007A90713D5B10711D51F
:1019B000F91E016101202077206880698007204698
:1019C00002D0FFF7E8FF04E000F0B6F8204600F090
:1019D0008BF92777680716D5700714D521686FF043
:1019E00004000861022020772068806910F4407F9D
:1019F000204602D0FFF7CFFF04E000F09DF820461C
:101A000000F072F92777280715D5300713D521681C
:101A10006FF008000861042020772068C069800703
:101A2000204602D0FFF7B7FF04E000F085F820461B
:101A300000F05AF92777E80616D5F00614D5216884
:101A40006FF010000861082020772068C06910F44A
:101A5000407F204602D0FFF79EFF04E000F06CF8C4
:101A6000204600F041F92777E80708D0F00706D0B4
:101A700021686FF001000861204600F0B9F92806DE
:101A800001D4A80408D5300606D521686FF40250A9
:101A900008612046FFF701FDE80508D5300606D5A8
:101AA00021686FF4807008612046FFF7F5FC680636
:101AB00008D5700606D521686FF040000861204601
:101AC00000F0A2F9A8060AD5B00608D521686FF083
:101AD000200008612046BDE8F041FFF7DFBCBDE80B
:101AE000F081000010B586B0044614216846FEF768
:101AF00077FC0F492068884217D10E48C16C41F02D
:101B00000101C164C06C694600F0010005904FF40A
:101B1000407000900220019000200290039001206C
:101B200004904FF09040FEF741FD06B010BD00005C
:101B3000002C014000100240704770B5044690F838
:101B40003C0000260D4601280BD0012084F83C0003
:101B50000C2A4AD007DC82B1042A20D0082A06D1F8
:101B600031E0022070BD102A53D0142A63D0012620
:101B7000002084F83C00304670BD206800F040FF33
:101B80002068816941F0080181612068816921F044
:101B900004018161206881692A69114311E020688C
:101BA00000F080FF2068816941F400618161206854
:101BB000816921F480618161206881692A6941EA33
:101BC00002218161D4E7206800F0B6FF2068C16976
:101BD00041F00801C1612068C16921F00401C161BF
:101BE0002068C1692A69114311E0206800F0EEFF06
:101BF0002068C16941F40061C1612068C16921F4B4
:101C00008061C1612068C1692A6941EA0221C1611C
:101C1000AEE7206801F014F82068416D41F008013A
:101C200041652068416D21F0040141652068416DE6
:101C30002A69114311E0206801F03AF82068416DEB
:101C400041F4006141652068416D21F48061416586
:101C50002068416D2A6941EA0221416588E710B593
:101C6000040003D094F83D0010B107E0012010BD3E
:101C7000002084F83C00204600F022F8022084F87E
:101C80003D00211D206800F037FE012084F8480047
:101C900084F83E0084F83F0084F8400084F8410056
:101CA00084F8420084F8430084F8440084F8450036
:101CB00084F8460084F8470084F83D00002010BDF9
:101CC00008B500680649884208D10648016E41F40B
:101CD00000610166006E00F40060009008BD000025
:101CE000002C0140001002407047000030B504464F
:101CF000022269B1042912D0082917D00C291CD05E
:101D0000102921D094F84300012824D0012030BDAF
:101D100094F83E000128F9D184F83E201DE094F8A3
:101D20003F000128F2D184F83F2016E094F84000EB
:101D30000128EBD184F840200FE094F841000128FD
:101D4000E4D184F8412008E094F842000128DDD174
:101D500084F8422001E084F843200122206800F04A
:101D60002FFE1A4A20681A4B1A49904209D098420D
:101D700007D0884205D0184DA84202D0174DA8427E
:101D800003D1456C45F400454564206890420FD06E
:101D9000B0F1804F0CD0124A904209D0114A9042C3
:101DA00006D0114A904203D0984201D0884207D110
:101DB00081680E4A1140062906D0B1F5803F03D054
:101DC000016841F001010160002030BD002C01409C
:101DD00000340140004001400044014000480140FF
:101DE0000004004000080040000C00400700010013
:101DF0000349884202D1034901200870704700005E
:101E0000CC080020110000207047704770477047D1
:101E10002DE9F04102680446D0691168936840F6E4
:101E20000F0528424FF000054FF0020605D1870646
:101E30007ED58F067CD5A16E33E1DFF894C203F026
:101E4000010701EA0C0C57EA0C0C71D05FEAC07C68
:101E50000CD05FEAC15C09D54FF0010CC2F820C07C
:101E6000D4F8842042F00102C4F88420820709D506
:101E7000DA0707D022681662D4F8842042F0040200
:101E8000C4F8842042070AD5DA0708D02368042260
:101E90001A62D4F8842042F00202C4F884200207B7
:101EA0000CD501F020023A4308D0236808221A62B8
:101EB000D4F8842042F00802C4F8842002050BD52F
:101EC0004A0109D523684FF400621A62D4F88420CD
:101ED00042F02002C4F88420D4F88420002A36D0AE
:101EE000800605D5880603D5A16E09B1204688472E
:101EF000D4F8840021688968490602D410F0280FBC
:101F000027D0204601F017F82068806840061BD5CE
:101F10002068083050E8001F21F0400140E800121E
:101F2000002AF5D1606F78B16A498163606F00E083
:101F300015E0FEF714FB002809D0606F816B00E00C
:101F40002046BDE8F04108472046FFF760FFBDE8A6
:101F5000F0812046FFF75BFFC4F88450F7E7D4F820
:101F600060C02027BCF1010F7ED15FEAC06C7BD539
:101F70005FEAC16C78D51020106220688068400646
:101F80004FD5616F0A6850680004000C3DD0B4F86A
:101F90005830834239D9A4F85A000868006880068E
:101FA0002BD4206850E8001F21F4807140E8001213
:101FB000002AF6D12068083050E8001F21F0010106
:101FC00040E80012002AF5D12068083050E8001FD0
:101FD00021F0400140E80012002AF5D1C4F88070D9
:101FE0002566206850E8001F21F0100140E800122B
:101FF000002AF6D1606FFEF78CFA6666B4F85800D6
:10200000B4F85A10401A81B207E0B4F8581081426F
:102010009DD1106880069AD566662046FFF7F5FECA
:1020200095E7B4F85800B4F85A10401A81B2B4F8E1
:102030005A0000288BD0002989D0226852E8000F6E
:1020400020F4907042E80003002BF6D1206808309D
:1020500050E8002F22F0010240E80023002BF5D1C8
:10206000C4F88070256600E00AE0A566226852E8A0
:10207000000F20F0100042E80003002BF6D1CBE760
:10208000C60209D55B0207D54FF4801010622046C6
:10209000BDE8F041FFF7BABE020606D50A0604D530
:1020A000E16E00297FF44CAF51E74006B8D54806F1
:1020B000B6D52046026852E8001F21F0400142E8F0
:1020C0000013002BF6D1C767C56600F008F93EE79C
:1020D000200100042D2F000810B5040002D0E06F8D
:1020E00010B107E0012010BD002084F878002046E0
:1020F00000F026F82420E0672068016821F0010143
:102100000160606A10B1204600F058FE204601F0E0
:1021100001F80128E7D02068416821F4904141602E
:102120002068816821F02A0181602068016841F0FF
:10213000010101602046BDE8104000F0A3BE000090
:1021400010B5A8B00446142122A8FEF749F9882149
:102150006846FEF745F91B49206888422FD10120C7
:10216000002400900E946846FEF706FC08B1FEF7C6
:10217000CEF91548016E41F480410166016E01F40B
:1021800080412791C16C41F00201C164C06C22A959
:1021900000F002002790C02022900220CDE9230405
:1021A00003202590072026900848FEF7FFF900221B
:1021B00011462520FEF772FB2520FEF761FB28B0B3
:1021C00010BD00000038014000100240000400482B
:1021D00030B4D0F88030202B02D0022030BC7047C1
:1021E000A9B1A2B1002303660A4C0368A3420BD035
:1021F0005B681B0208D5046854E8003F43F0806325
:1022000044E80035002DF6D130BC01F0A7B801201C
:10221000E4E7000000800040034A0168914201D1D8
:1022200001F0DCBD70470000003801402DE9F84F97
:102230000446C06F984615460E46202802D002205C
:1022400000F04AB886B37DB30020C4F884004FF094
:102250002109C4F87C90FEF7BDFAA4F850508246DC
:10226000A4F85250A068B0F5805F01D1206910B188
:102270003546002600E000255FF02007B4F8520044
:1022800053464FF00002CDF80080D0B180212046A7
:1022900001F0C0F8D0B94DB115F8010B2168886282
:1022A000E16F39EA010006D00120C9E736F8020BD8
:1022B000C0F30800F2E7B4F85200401EA4F8520040
:1022C000DCE74021204601F0A5F810B1E7670320C4
:1022D000B6E7E7670020B3E718BCBDE8E08F7047BA
:1022E000FEE700002DE9F04186B014216846FEF7B4
:1022F00077F81F48C16C41F00101C164C16C01F065
:1023000001010591C16C41F00401C164C16C01F08F
:1023100004010591C16C41F00201C164C06C154F0C
:1023200000F002004FF44074059000222146384628
:10233000FEF74BFA4FF480664FF09048002231468A
:102340004046FEF742FA0125CDE9004500240294FB
:10235000694638460394FEF729F90096CDE9015401
:10236000694640460394FEF721F906B0BDE8F081C6
:10237000001002400008004810B596B000241294E6
:1023800013941C210BA81494FEF72AF82C216846FC
:10239000FEF726F82748264901604F21C0E90114BD
:1023A00040F2E731C0E9031444618461FFF757FC50
:1023B00008B172B6FEE71294139412A91D48149442
:1023C000FFF7B4F808B172B6FEE76020CDE90B0460
:1023D0000D940E940F94109400220BA9154811949B
:1023E000FFF7ABFB08B172B6FEE704220BA9114858
:1023F000FFF7A3FB08B172B6FEE700944FF400505C
:10240000CDE9044001940294039400030694CDE9BD
:1024100007400994694607480A94FFF741F808B154
:1024200072B6FEE70348FFF75DFB16B010BD000073
:10243000002C0140E807002010B58CB0242168462C
:10244000FDF7CEFF0024154809940A944FF080410F
:102450000B94C0E90014611EC0E90241046184616B
:102460000320CDE900040120CDE902040494CDE964
:1024700005400794694609480894FFF7A5F908B193
:1024800072B6FEE7099409A904480B94FFF74EF8C9
:10249000002801D072B6FEE70CB010BD3408002051
:1024A00010B58CB024216846FDF79AFF0024164829
:1024B00009940A9413490B94C0E900144FF6FF7174
:1024C000C0E90241046184610320CDE900040120D8
:1024D000CDE902040494CDE90540079469460A4811
:1024E0000894FFF771F908B172B6FEE7099409A9DB
:1024F00005480B94FFF71AF8002801D072B6FEE7E2
:102500000CB010BD000400408008002010B588B059
:1025100000241748009401940294039404940594B1
:102520001249069401604F21C0E9011440F2CF71B5
:10253000C0E903148461FFF747F808B172B6FEE7FB
:102540004FF48050009069460948FFF7CDF808B174
:1025500072B6FEE7049404A905480694FEF7E6FF68
:10256000002801D072B6FEE708B010BD0008004098
:10257000CC0800200C4810B50A4901604FF4E13145
:102580004160002181600C22C160C0E904128161B8
:10259000C16101624162FFF79FFD002801D072B660
:1025A000FEE710BD0038014018090020FEE7FEE7F5
:1025B000704700002DE9F041444C05468846E0682C
:1025C0000026810728680DD0E16801F003018142EF
:1025D00016D1A8B1E0686968C0F30210401C8842B7
:1025E0000ED120E0012804D0022805D0032807D10D
:1025F00008E02168890701E021684905002907DB17
:1026000001265FE02168890302D421684903F5E7C8
:10261000E1686A686FF00F0321F0730103EB0212A7
:1026200011430143E160206820F080602060FEF7E4
:10263000D1F8074605E000BFFEF7CCF8C01B022822
:1026400037D820680001F7D4B8F1000F18D0B8F1DE
:10265000010F1ED0287D4FF07E41400801EB406005
:10266000A96840EA01202169194A11400843206104
:10267000206840F080602060FEF7ACF807461AE062
:10268000A868E9680002090940EA41402169114A45
:10269000EBE7288A1049400801EB4050A96840EA5E
:1026A000012021690D4AE0E7FEF794F8C01B0228DB
:1026B00001D9032606E020680001F5D52069A96943
:1026C000084320613046BDE8F08100000010024060
:1026D000FF80FFF9FF80FDFF0000E0FFFF809FFF0C
:1026E0002DE9F0413D4C06468846E068002581070B
:1026F00030680DD0E16801F00301814216D1A8B124
:10270000E0687168C0F30210401C88420ED120E0DE
:10271000012804D0022805D0032807D108E0216849
:10272000890701E021684905002907DB012551E0FF
:102730002168890302D421684903F5E7E1687268DA
:102740006FF00F0321F0730103EB021211430143F9
:10275000E160206820F080502060FEF73BF80746DB
:1027600005E000BFFEF736F8C01B022829D8206814
:102770008000F7D4B8F1000F15D0307C4FF07E41C7
:10278000400801EB4060B16840EA01206169144AE9
:10279000114008436061206840F080502060FEF7DF
:1027A00019F807460FE0B068F1680002090940EA2D
:1027B000414061690B4AEBE7FEF70CF8C01B0228A9
:1027C00001D9032506E020688000F5D560697169AC
:1027D000084360612846BDE8F08100000010024017
:1027E000FF80FFF9FF80FDFFF8B51C4D0646002471
:1027F000A86DC00002D5FEF7B7F80DE0A86D40F057
:102800008050A865A86D00F080500090FEF7ACF8ED
:10281000A96D21F08051A965B0F5007F04D0802E0C
:1028200007D94FF003040AE0802E08D9A02E01D862
:1028300004E001D1022402E0702E00D101240848F6
:10284000016821F0070121430160006800F00700E2
:10285000A04201D00120F8BD0020F8BD00100240C8
:10286000002002407047FDF7BBBF00B597B0442180
:102870006846FDF7B5FD142111A8FDF7B1FD4FF431
:102880000070FEF73DF808B172B6FEE70220C10104
:1028900003911021009004910A900121CDE90B01D0
:1028A0000A210D910721CDE90E1010906846FEF720
:1028B00053FB08B172B6FEE70F201190032012906F
:1028C0000020139014901590042111A8FEF72CFA03
:1028D000002801D072B6FEE717B000BD02480168BB
:1028E00041F470010160704788ED00E00148FFF796
:1028F00053B80000CC0800202DE9F0470268284BAF
:10290000284D294E294F2A4C4FF0804A984209D031
:10291000504507D0A84205D0B04203D0B84201D0FC
:10292000A04204D122F0700C4A6842EA0C02DFF89F
:1029300084C0DFF88480DFF8849098420FD050453F
:102940000DD0A8420BD0B04209D0B84207D0A04267
:1029500005D0604503D0404501D0484503D122F45D
:102960004075CA682A434D6922F080022A438D6867
:10297000C5620D688562984207D0A04205D06045C7
:1029800003D0404501D0484501D109690163016880
:1029900041F004010160012141610260BDE8F0875E
:1029A000002C01400004004000080040000C0040E2
:1029B0000034014000400140004401400048014013
:1029C00010B501F01F030121046A99408C43046291
:1029D000016A9A401143016210BD10B5846842EA51
:1029E000032224F47F440A432243826010BD82689C
:1029F00022F070020A4342F0070181607047000034
:102A00002DE9F043056A026A22F00102026243687E
:102A100082691E4C25F0020522400C6822F0030258
:102A200014438A681B4E2A43194D1B4FDFF86CC0B4
:102A3000DFF86C90A84207D0B04205D0B84203D06E
:102A4000604501D048450AD1D0F8208028F004081C
:102A5000C0F8208022F00808CA6842EA0802A842AA
:102A600007D0B04205D0B84203D0604501D04845F8
:102A700005D14D6923F440731D438B692B4343609B
:102A80008461496841630262BDE8F0838FFFFEFF05
:102A9000002C01400034014000400140004401404E
:102AA00000480140F0B5056A026A22F01002026295
:102AB000426883691A4C1C4E23400C6823F440730F
:102AC00043EA042425F020038D6843EA0513154DDD
:102AD000A84201D0B04208D1076A27F04007076238
:102AE000CF6823F0800343EA0713A8420AD0B0421C
:102AF00008D00E4DA84205D00D4DA84202D00D4D74
:102B0000A84207D14D6922F4406242EA85028D69EC
:102B100042EA850242608461496881630362F0BDD4
:102B2000FF8FFFFE002C01400034014000400140B7
:102B30000044014000480140F0B5056A026A22F4F1
:102B4000807202624268C3691A4C1C4E23400C68B2
:102B500023F003031C4325F400738D6843EA052327
:102B6000154DA84201D0B04208D1076A27F480670A
:102B70000762CF6823F4006343EA0723A8420AD020
:102B8000B04208D00E4DA84205D00E4DA84202D04A
:102B90000D4DA84207D14D6922F4405242EA051278
:102BA0008D6942EA05124260C4614968C1630362EB
:102BB000F0BD00008FFFFEFF002C014000340140FB
:102BC00000400140004401400048014030B5046A23
:102BD000026A22F4805202624268C369124D24F4F0
:102BE00000542B400D6823F4407343EA05238D689D
:102BF00044EA05340D4DA8420BD00D4DA84208D033
:102C00000C4DA84205D00C4DA84202D00B4DA84255
:102C100004D14D6922F4804242EA85124260C361C8
:102C200049680164046230BDFF8FFFFE002C014043
:102C30000034014000400140004401400048014090
:102C400030B5056A026A22F4803202624268436D3E
:102C5000114C23400C681C4325F400330D8943EAD2
:102C600005430E4DA8420BD00D4DA84208D00D4D86
:102C7000A84205D00C4DA84202D00C4DA84204D168
:102C80004D6922F4803242EA052242604465496877
:102C90008165036230BD00008FFFFEFF002C014004
:102CA0000034014000400140004401400048014020
:102CB00030B5046A026A22F4801202624268436DEF
:102CC000114D24F400142B400D6843EA05230D89AF
:102CD00044EA05540D4DA8420BD00D4DA84208D032
:102CE0000C4DA84205D00C4DA84202D00B4DA84275
:102CF00004D14D6922F4802242EA85224260436574
:102D00004968C165046230BDFF8FFFFE002C0140A1
:102D100000340140004001400044014000480140AF
:102D200010B5036A046A24F0010404620E4CA04248
:102D30000BD00E4CA04208D00D4CA04205D00D4C3B
:102D4000A04202D00C4CA04203D1046A24F0040437
:102D50000462846924F0F00444EA021423F00A02B5
:102D60000A438461026210BD002C0140003401401E
:102D700000400140004401400048014010B5036A92
:102D8000046A24F0100404620A4CA04202D00A4CE7
:102D9000A04203D1046A24F040040462846923F051
:102DA000A00324F4704444EA023243EA0111826130
:102DB000016210BD002C01400034014090F8241045
:102DC000090706D501684A68436B22F400421A439A
:102DD0004A6090F82410C90706D001684A68836ADF
:102DE00022F400321A434A6090F82410890706D56D
:102DF00001684A68C36A22F480321A434A6090F834
:102E00002410490706D501684A68036B22F4802222
:102E10001A434A6090F82410C90606D501688A68EA
:102E2000836B22F480521A438A6090F8241089063A
:102E300006D501688A68C36B22F400521A438A607F
:102E400090F82410490611D501684A68036C22F4F1
:102E500080121A434A60016CB1F5801F06D10168E7
:102E60004A68436C22F4C0021A434A6090F8241066
:102E7000090606D501684A68806C22F400220243E4
:102E80004A6070472DE9F84300260446C0F8846084
:102E9000FDF7A0FC8046206800684FF02005000781
:102EA0006FF07E4712D54346002229042046009742
:102EB00000F0B0FA50B1216851E8000F20F0800016
:102EC00041E80002002AF6D1E56721E020680068A9
:102ED000400722D5434600224FF480012046009748
:102EE00000F098FAC8B1216851E8000F20F4907002
:102EF00041E80002002AF6D12068083050E8001F9F
:102F000021F0010140E80012002AF5D1C4F88050F8
:102F100084F878600320BDE8F883E567C4F8805042
:102F200044F8606F666026760020F4E710B5806A8A
:102F3000FEF76DFF10BD016851E8002F22F490727A
:102F400041E80023002BF6D10168083151E8002F39
:102F500022F0010241E80023002BF5D1016E012986
:102F600008D1026852E8001F21F0100142E8001366
:102F7000002BF6D12021C0F8801000210166816667
:102F80007047000010B5B0F85C20D0F880300168C0
:102F9000222B04D0886940F00800886110BD496A7E
:102FA000436D11401980416D891C4165B0F85A107C
:102FB000491EA0F85A10B0F85A100029EED1026844
:102FC00052E8001F21F4907142E80013002BF6D163
:102FD0000168083151E8002F22F0010241E8002386
:102FE000002BF5D12021C0F88010002181664166B8
:102FF000154B02689A420BD05268120208D503683A
:1030000053E8002F22F0806243E80024002CF6D120
:10301000026E012A02D0FFF7FFF810BD01660268B8
:1030200052E8001F21F0100142E80013002BF6D1F6
:103030000168CA69D243D20601D410220A62B0F8EC
:103040005810FEF7E2FE10BD0080004010B5B0F849
:103050005C20D0F880300168222B04D0886940F0D1
:103060000800886110BD496A1140426D1170416DC0
:10307000491C4165B0F85A10491EA0F85A10B0F822
:103080005A100029EED1016851E8002F22F4907205
:1030900041E80023002BF6D10168083151E8002FE8
:1030A00022F0010241E80023002BF5D12021C0F8D5
:1030B0008010002181664166154B02689A420BD050
:1030C0005268120208D5036853E8002F22F080628C
:1030D00043E80024002CF6D1026E012A02D0FFF74B
:1030E0009BF810BD0166026852E8001F21F0100134
:1030F00042E80013002BF6D10168CA69D243D20618
:1031000001D410220A62B0F85810FEF77EFE10BDFE
:10311000008000402DE9F041044601688068226982
:10312000E3691043626900251A431043814F0A681E
:10313000814B1A4002430A6020684168E26821F42A
:103140004051114341602168A069B94201D0226A0F
:1031500010438A6822F4306202438A607749226809
:1031600077488A420DD1D0F8880010F0030006D0CD
:10317000012866D0022854D0032851D163E00120F1
:103180004FE070498A420BD1D0F8880010F00C0053
:1031900047D0042845D0082851D00C2840D152E00F
:1031A00069498A420BD1D0F8880010F0300038D03D
:1031B000102846D0202842D0302831D143E063493E
:1031C0008A420BD1D0F8880010F0C00029D04028E6
:1031D00037D0802833D0C02822D134E05C498A42DD
:1031E0000ED1D0F8880010F440701AD0B0F5807F6E
:1031F00027D0B0F5007F22D0B0F5407F10D122E07B
:10320000BA420DD1D0F8880010F4406009D0B0F572
:10321000806F16D0B0F5006F11D0B0F5406F12D0AE
:1032200010204C4900264FF40043BA422ED160B121
:1032300002280DD004280DD008286FD10EE00220FE
:10324000EFE70420EDE70820EBE7FDF70FFE03E0D2
:103250000B4603E0FDF72EFE030060D0626802EB30
:10326000420098425AD8B3EB023F57D8190E1B02BE
:103270005008181871410023FCF7F6FF364AA0F5F4
:10328000407191424AD82168C86048E0E2694FF62F
:10329000EF779A4227D1092840D2DFE800F00508ED
:1032A0000D3F213F3F3F0E00FDF7E0FD01E0FDF740
:1032B000EFFD030001D132E00B466068590001EBDD
:1032C0005001B1FBF0F0A0F11001B94226D84FF641
:1032D000F0710140C0F3420001432068C1601EE06C
:1032E000FDF7E8FDE5E7092818D2DFE800F005085A
:1032F0000D171D1717170E00FDF7B8FD01E0FDF7BC
:10330000C7FD030001D10AE00B46606803EB5001E2
:10331000B1FBF0F0A0F11001B94208D90125A66671
:103320002846E666BDE8F081FDF7C4FDE9E780B216
:10333000A9E7000000800040F369FFEF003801407A
:10334000001002400044004000480040004C004093
:10335000005000400024F400FFFC0F0030B5416530
:10336000A0F85820A0F85A200022826681684FF405
:103370008055FF23A94204D1016969BB40F2FF11C6
:1033800030E07F2431B3B1F1805F28D0A0F85C2019
:10339000C0F884202221C0F880100168083151E86B
:1033A000002F42F0010241E80023002BF5D1816893
:1033B000A94201D10169D9B1144981660169C9B134
:1033C000016851E8002F42F4907241E80023002B7D
:1033D000F6D118E0016941B9A0F85C30D8E701697D
:1033E00019B13F21A0F85C10D2E7A0F85C40CFE70C
:1033F00007498166026852E8001F41F0200142E857
:103400000013002BF6D1002030BD00004D30000825
:10341000852F00082DE9F047994617460D460446CA
:103420004FF00008089E33E0701C31D0FDF7D2F950
:10343000A0EB0900B04218D8BEB120680168490766
:1034400026D5802D24D0402D22D0C169C94309073B
:103450000DD4082505622046FFF76DFDC4F88450A1
:1034600084F878800120BDE8F0870320FBE7C0697D
:10347000C04300050CD421684FF400600862204668
:10348000FFF759FD2020C4F8840084F87880ECE729
:103490002068C06935EA000004D00020B842C3D0DB
:1034A0000020E0E70120F9E70148FEF7B1BC000089
:1034B00018090020FEE70907090E002804DB00F1C7
:1034C000E02080F80014704700F00F0000F1E020C9
:1034D00080F8141D7047B0F82C2312B9C822A0F848
:1034E0002C23B0F82023D0EDCA0A00EB820292ED23
:1034F000001A30EE411A70EE810AC0EDCA0A82ED60
:10350000000AB0F82023521C93B2A0F82033B0F880
:103510002C23934202D10023A0F8203300EE102A7E
:10352000D0EDCA0AB8EE401A80EE810A80EDC90AD1
:1035300081ED000A7047D0ED031AF5EEC01AF1EEE6
:1035400010FA01D101207047D0ED000A90ED061A63
:1035500090ED013A60EE802AD0ED020A30EE411A79
:10356000D0ED043A60EEA10A20EE812A63EE230A30
:1035700080EEA11A72EE810A30EE824AD0ED080A7E
:10358000B4EEE04AF1EE10FA25D2F1EE604AB4EE64
:10359000E44AF1EE10FA1EDD73EE803AC0ED043A13
:1035A00090ED051AF4EEC13AF1EE10FA01DD80ED6E
:1035B000041AD0ED043AB1EE411AF4EEC13AF1EE3C
:1035C00010FA02D3B0EE631A01E080ED041A23EE84
:1035D000013A83EE211A32EE811A31EE021A80EDA1
:1035E000071AB4EEE01AF1EE10FA01DDC0ED070A99
:1035F00090ED071AF1EE600AB4EEE01AF1EE10FA5F
:1036000001D2C0ED070A80ED060A0020704770B5B0
:1036100004460020024607250FE0A35C5840002323
:10362000060602D585EA400000E040005B1CDBB2E4
:10363000C0B2082BF4D3521CD2B28A42EDD370BD73
:1036400010B50446818A00690122FDF7BEF8012009
:10365000207710BD70B504460846E16184ED060A86
:103660009FED0B0A002184ED000A84ED010AC4E9F4
:103670000211012184F820100025656284F82820B9
:103680003C21FEF741F9E0690068456270BD000029
:10369000000000002DE9F04105002DED028B1BD04C
:1036A000E869C8B1D0F800E0DEF82460002795EDA5
:1036B000060A3C46DFED430A20EE200ADFED420A0F
:1036C00095F8200080EE808A9FED400A48B185ED94
:1036D000000A85F820702BE00220BDEC028BBDE8CB
:1036E000F081D5E9021086EA010284EA00031A4358
:1036F0001CD08A1B70EB040241DADEF82C20731A0E
:103700004FEA520C64EB0002BCEB030C77EB020CAB
:1037100032DADEF82C309B1B67EB0402CB185041E9
:1037200000215A4261EB0001104640E085ED000A9D
:10373000294605F12C00FFF7CEFE95F92800D5EDBE
:10374000000A00EE100AB8EEC00A20EE800A85EDED
:10375000000AD5ED010A95ED061AB5EEC00A40EE55
:10376000010AC5ED010AF1EE10FAC5E9026425D19E
:10377000686A401C686222E01146184617E0B1EB07
:10378000060CDEF82C3060EB04025B08BCEB030394
:10379000BA4105DA711A64EB00020846114606E0E8
:1037A000DEF82C305B1A67EB00019819614100F0DC
:1037B000A4FB00EE100A20EE080AB7E76F620020B3
:1037C0008BE700000000AF44DB0FC94000000000A1
:1037D000FDF70EF8FFF749F8FEF784FDFEF7CCFD84
:1037E000FEF72AFEFEF75CFEFEF790FEFEF7C2FE35
:1037F0000B48FDF739FF00F0CFF80024094D2646AD
:10380000287810B12E7000F083F9FCF7E3FF011B5C
:103810000A2902D3044600F075F900F07BF8EFE7BF
:10382000CC080020110000202DE9F041044606A834
:103830009FED1B0A90E8C0500846114684E80B0033
:10384000A6812761A4F814C084ED060A84F81DE05F
:10385000FEF74CFA6168002079B1042911D00829DB
:1038600013D00C2915D010292168096815D0C86516
:103870002046BDE8F041FFF7E3BE216809684863D0
:10388000F6E7216809688863F2E721680968C86378
:10389000EEE7216809680864EAE78865E8E7000060
:1038A00000000000C82900D3C821A0F82C13002173
:1038B0009FED070AA0F8201380EDCA0A80EDC90A1F
:1038C00000EB8102491C82ED000AC829F8DB704731
:1038D00000000000C2690021126851629FED070AD2
:1038E000012280ED010A80F82020C0E9021180ED5C
:1038F000000A416246212C30FFF7D4BF00000000CF
:103900009FED030A80ED040A80ED060A704700006F
:103910000000000000B52DED048B89B0684600F072
:1039200043FA002826D015489DED030A9FED158A1D
:1039300080ED000A12489DED070ADFED138A80ED45
:10394000000A9FED129AF0EE482A9DEC030AB0EEB1
:10395000682AF0EE491A0E4800F066F904A9F0EE64
:10396000482A91EC030AB0EE682AF0EE491A094899
:1039700000F05AF909B0BDEC048B00BD0000002036
:103980000400002000409C4500C079440000FA4338
:10399000580700207C07002070B501202DED048B16
:1039A00084B00502434C410203908DE83200234667
:1039B000002241494148FFF737FF4FF0FF36A8008A
:1039C0008DE871004FF0904304223B493C48FFF7DB
:1039D0002BFF9FED3C8A01223B49B0EE480A3B4851
:1039E000FFF738FE3246B0EE480A39493948FFF74A
:1039F00031FE9FED398A9FED399ADFED398AF0EE7D
:103A0000482AB0EE492AF0EE681A9FED361AF1EE18
:103A10000C0AB0EE080A344800F006F9F0EE482A25
:103A20009FED328AB0EE492AF0EE681AB0EE481ADD
:103A3000F1EE040AB0EE080A2D4800F0F5F89FED0B
:103A40002D9AB2EE042AF0EE681AF0EE492AB0EE92
:103A5000481AF0EE480AB0EE000A274800F0E4F8F1
:103A6000F0EE492AB2EE042AF0EE681AB0EE481AD7
:103A7000F0EE480AB0EE000A204800F0D5F81E48E3
:103A8000FFF73EFF1D48FFF73BFF1048FFF722FFFF
:103A90001048FFF71FFF1448FFF732FF1448FFF7E5
:103AA0002FFF04B01648BDEC048BBDE8704000F059
:103AB0008DB9000000080048E80700203000002011
:103AC000500000206F12033B80080020700000208F
:103AD00034080020D003002000409C450000C8426C
:103AE0000000FA430AD7233C5807002000000000DA
:103AF0007C07002000007A44A0070020C4070020B3
:103B000018090020014800F0C5B900003007002066
:103B10002DE9F04736482DED028BFFF7BBFD354808
:103B2000FFF7B8FD3448324C324D0078334FDFF8A0
:103B3000D09001283ED0D7ED000A99ED000A00BFD1
:103B400094ED001A2F4870EEC10A95ED001A30EE80
:103B5000418AB0EE600AFFF7EEFCB0EE480A2A4850
:103B6000FFF7E9FC274E294896ED070A00F06EF8AA
:103B7000DFF89480264898ED070A00F067F825489A
:103B8000396801602168416061688160F169C160E4
:103B9000A1680161D9F800104161296881616968F3
:103BA000C161D8F81C100162A9684162BDEC028BAA
:103BB000BDE8F087184894ED010AD0ED000A1748D7
:103BC00030EEC00AD5ED010A90ED001A144831EE2E
:103BD000608AFFF7B0FCB0EE480A1248FFF7ABFC72
:103BE0000F48D0ED070A0F4890ED070AA8E700003C
:103BF00070000020D00300201000002000000020F2
:103C000004000020580700207C070020300000201E
:103C10005000002030070020080000200C00002089
:103C2000A0070020C40700209FED073A80ED043A6A
:103C300080ED063A80ED073A80ED082AC0ED052AAE
:103C400080EC040A704700000000000070B5C8B1A5
:103C50000268BAB1017FA9B190F91D103E4D00EE86
:103C6000901A00243D4BF8EEE00A9FED3E1A20EE3C
:103C7000800ADFED3B0A10EE101AA94204DDB0EE17
:103C8000600A07E0022070BD10EE101A994202D9B6
:103C9000B0EE410A0124B5EEC00AF1EE10FA02D1ED
:103CA00000F062F84BE080ED060A1168CA6AB5EED2
:103CB000C00A02F10102F1EE10FA24DD01EE102A31
:103CC0004368B8EE411A20EE010A80EE201ABCEEDD
:103CD000C10A10EE102A63B1042B0CD0082B0CD0B3
:103CE0000C2B0CD0102B0CD0CA6581898068012266
:103CF00023E04A63F9E78A63F7E7CA63F5E70A64F2
:103D0000F3E78A65F1E700EE902A4368F8EE600A6F
:103D100020EE200AC0EE010ABCEEE00A10EE102AE6
:103D20007BB1042B0FD0082B0FD00C2B0FD0102BF6
:103D30000FD0CA65818980680022FCF746FD2046C5
:103D400070BD4A63F6E78A63F4E7CA63F2E70A6480
:103D5000F0E78A65EEE700000000C8420000C8C234
:103D60000000C8420000C8C2D0E900130022096860
:103D70006BB1042B0DD0082B0DD00C2B0DD0102BBC
:103D80000DD0CA659FED070A80ED060A70474A63A9
:103D9000F8E78A63F6E7CA63F4E70A64F2E78A653C
:103DA000F0E7000000000000064910B50A793AB1BA
:103DB00000220A7120220449FCF7CDFA012010BD2F
:103DC000002010BD24000020E0090020024901224B
:103DD0008860491DFEF7FCB924000020F0B52B4C8B
:103DE000006889B0A168096888424DD121462078D1
:103DF0006579002601278A7806281FD2DFE800F0BF
:103E000003070D101427AA2D18D1277016E0552D81
:103E100001D1022011E0267010E0E57003200CE0D3
:103E2000A5706670042008E0194960780D54401CA4
:103E3000C0B26070904201D305202070A06809B024
:103E40001249BDE8F0400122491DFEF7C1B9E078F2
:103E50008DF800008DF801200D490DF10200FCF7EE
:103E60007AFAA078801CC1B26846FFF7D0FB854281
:103E7000D1D1E0780228CED10549202201F14000BD
:103E8000FCF769FA2771C6E709B0F0BD24000020ED
:103E9000A009002070B5064698B0AA208DF8000051
:103EA00055208DF80100012428258DF802408DF859
:103EB00003502A46314601A8FCF74DFA8DF83040F0
:103EC0008DF83150282231460DF13200FCF743FACB
:103ED0002A210CA8FFF79BFB8DF82C0004486423D3
:103EE0002D2269468068FEF7A1F918B070BD000068
:103EF000240000204FF07E5209E011F0004204D56A
:103F00004042C1F1000138BF491E42F07E520B0011
:103F100002F1706212BF20235FEA00017047B1FA1C
:103F200081FCA3EB0C0301FA0CF120FA03FC02EB79
:103F3000C352C3F1200341EA0C0110FA03FC5CEA0E
:103F4000416C42EB112018BF5FF0806C28BF20F05D
:103F5000010070474FF04070E1EE100A704700001A
:103F60000000000000000000010203040607080929
:103F7000A0860100400D0300801A060000350C00E9
:103F800040420F0080841E0000093D0000127A00AC
:103F90000024F40000366E010048E801006CDC02E9
:103FA0000000000001020304C83F000800000020D8
:103FB00030000000C4010008F83F00083000002075
:103FC00030100000E0010008000020410000204106
:103FD00000000000000000000000000001000000E0
:103FE000100000000000000000093D00000000007B
:083FF0000000000000000000C9
:040000050800018965
:00000001FF
