:020000040800F2
:1000000048070020290200088B210008611F000812
:10001000892100082F0300088D2900080000000036
:100020000000000000000000000000004124000863
:1000300055040008000000008D210008432400083A
:10004000430200084302000843020008430200087C
:10005000430200084302000843020008430200086C
:10006000430200084302000843020008430200085C
:10007000430200084302000843020008430200084C
:10008000430200084302000843020008430200083C
:10009000430200084302000843020008430200082C
:1000A000430200084302000843020008430200081C
:1000B000430200084302000843020008430200080C
:1000C00043020008430200084302000843020008FC
:1000D00043020008430200084302000843020008EC
:1000E00043020008430200084302000843020008DC
:1000F00043020008430200084302000843020008CC
:1001000043020008430200084302000843020008BB
:1001100043020008430200084302000843020008AB
:10012000430200084302000843020008430200089B
:10013000430200084302000843020008430200088B
:10014000430200084302000843020008430200087B
:10015000430200084302000843020008430200086B
:10016000430200084302000843020008430200085B
:100170004302000843020008430200080000000098
:10018000430200084302000800F002F800F03CF8C7
:100190000AA090E8000C82448344AAF10107DA45E2
:1001A00001D100F031F8AFF2090EBAE80F0013F0F8
:1001B000010F18BFFB1A43F0010318477028000015
:1001C00090280000103A24BF78C878C1FAD85207A6
:1001D00024BF30C830C144BF04680C6070470000C1
:1001E0000023002400250026103A28BF78C1FBD840
:1001F000520728BF30C148BF0B6070471FB502F0DF
:10020000EFFB1FBD10B510BD00F058F81146FFF709
:10021000F5FF02F0CDFB00F076F803B4FFF7F2FF34
:1002200003BC00F07DF800000948804709480047FA
:10023000FEE7FEE7FEE7FEE7FEE7FEE7FEE7FEE796
:10024000FEE7FEE704480549054A064B70470000F3
:10025000B92400088901000848010020480700204F
:1002600048030020480300204FF0000200B5134669
:1002700094469646203922BFA0E80C50A0E80C50C6
:10028000B1F12001BFF4F7AF090728BFA0E80C5077
:1002900048BF0CC05DF804EB890028BF40F8042B70
:1002A00008BF704748BF20F8022B11F0804F18BFDD
:1002B00000F8012B7047704770477047754600F093
:1002C0002BF8AE4605006946534620F007008546E8
:1002D00018B020B5FFF7B6FFBDE820404FF000068C
:1002E0004FF000074FF000084FF0000B21F007011E
:1002F000AC46ACE8C009ACE8C009ACE8C009ACE861
:10030000C0098D46704710B50446AFF30080204603
:10031000BDE81040FFF781BF00487047E4000020AF
:1003200001491820ABBEFEE7260002007047FEE739
:100330002DE9F041002516460F460446057200F0EF
:1003400049FDE060C4E90076A576657625616561C2
:100350002576E561384631462562BDE8F04101F079
:10036000FDBB70B51546044631B120680068C16216
:100370002068C1600121204600F007F800F02AFD46
:10038000C4E907050120A07670BD0172D0E9002004
:1003900001290CD0002140B3042829D008282AD0F4
:1003A0000C282BD0102810682BD0C165704712681C
:1003B000D16A491C01EB8101C9006423B1FBF3F14F
:1003C00048B1042809D0082809D00C2809D01028E1
:1003D00009D0D16570475163704791637047D1630D
:1003E00070471164704791657047106841637047AA
:1003F0001068816370471068C163704710680164BA
:1004000070478165704710B50446807E002820D073
:1004100000F0E0FCE169401A216A884219D3607E4D
:10042000401CC0B26076217E88420AD2616951F8D0
:100430002020216951F820102046BDE81040FFF728
:1004400090BF0020A07601462046BDE81040FFF78F
:100450009CBF10BD704772B6FEE700002DE9F04763
:10046000044690F850009AB00E464FF0000901285B
:1004700016D0012084F85000002515951695324FAE
:100480002068B84210D1DFF8C480CDF80080404623
:1004900001F075FD8246206801F071FD60B10EE04B
:1004A00002201AB0BDE8F087606D40F02000606562
:1004B00084F850500120F4E7BAF1000F0AD0606DC3
:1004C00040F0200060654FF0010900BF84F85050F3
:1004D0004846E6E71E4831681E4A0029816840F612
:1004E0001F7321F460411CD094F830C041EA4C31B4
:1004F000D6F804C041EA0C018160B968D8F80870E8
:1005000001F0010107F001079268394302F001028E
:100510001143DBD1B2683168114382689A431143B9
:100520000FE08160B968D8F8086001F0010106F0B9
:1005300001069268314302F001021143C6D181687D
:1005400099438160C2E7000000000450000104509C
:1005500000030450000204502DE9F84F0027044620
:10056000009790F85000DFF8B8930D46B846012880
:1005700011D0012684F85060206801F0FCFC60B1C5
:10058000606D40F0200060655FF0010784F85080E6
:10059000384600F0DDB90220FBE76868052808D876
:1005A000022825D0032825D0042825D0052825D0C9
:1005B000062021680C2303EA901319442A680B6B68
:1005C00000F01F004FF01F0C0CFA00FCC2F3846215
:1005D00023EA0C03824013430B63206801F0CBFC39
:1005E0008246206801F0C3FC5AEA000009D09AE074
:1005F0000C20DEE71220DCE71820DAE74FF48070E9
:10060000D7E7AA682968206801F0BDFC20686969FD
:10061000C268C2F3C102520091402A69042A0FD075
:1006200000EB82002B68026EDFF8F8C203F0F8439B
:1006300002EA0C020B431A4342F00041016672E0E9
:10064000002101F08EFC400320684FF0000172D0C1
:1006500001F087FC90FAA0F0B0FA80F1286842031C
:100660006ED090FAA0F0B0FA80F0814204D100225E
:100670001146206801F096FC0121206801F071FC10
:10068000400320684FF001015DD001F06AFC90FA50
:10069000A0F0B0FA80F12868420359D090FAA0F097
:1006A000B0FA80F0814204D100220121206801F0DB
:1006B00079FC0221206801F054FC400320684FF0CF
:1006C000020148D001F04DFC90FAA0F0B0FA80F1A0
:1006D0002868420344D090FAA0F0B0FA80F081423A
:1006E00004D100220221206801F05CFC0321206873
:1006F00001F037FC400320684FF0030133D001F0D4
:1007000030FC90FAA0F0B0FA80F1286842032FD0B4
:1007100090FAA0F0B0FA80F0814204D100220321C7
:10072000206801F03FFC2068816811F0010F22D0A1
:10073000ABE000E004E001F014FCC0F384618DE75D
:10074000C0F3846091E701F00CFCC0F38461A2E780
:10075000C0F38460A6E701F004FCC0F38461B7E74E
:10076000C0F38460BBE701F0FCFBC0F38461CCE71D
:10077000C0F38460D0E72A7B296850F8B03FC1F30A
:10078000120C23EA0C0302F0180C674A22FA0CF24E
:100790000A4013430360E968494576D1286841035C
:1007A0001BD090FAA0F1B1FA81F1491C01F01F01B0
:1007B00009294FEA403131D8002911D090FAA0F12F
:1007C000B1FA81F101F1010101F01F0106FA01F610
:1007D00009D100BFC0F3846109E0C0F38461E4E79C
:1007E000C0F38461EEE790FAA0F1B1FA81F101F172
:1007F000010101F01F0146EA816102D1C0F384606A
:1008000003E090FAA0F0B0FA80F000F1010000F0EF
:100810001F0000EB400041EA005132E000290ED0F9
:1008200090FAA0F1B1FA81F101F1010101F01F018B
:1008300006FA01F606D100BFC0F3846106E0C0F3FA
:100840008461F1E790FAA0F1B1FA81F101F10101BF
:1008500001F01F0146EA816102D1C0F3846003E028
:1008600090FAA0F0B0FA80F000F1010000F01F0053
:100870002E4A00EB400002EB005041EA000141F03B
:100880000071AA68206801F07EFB29482A680242AC
:100890003FF47CAE27488168274E284B284D01F055
:1008A000E071B2421DD10E021BD422689A4202D0DE
:1008B000AA427FF46BAE826841F4000122F0E0723C
:1008C0000A4382601F4820490068B0FBF1F0401CD9
:1008D00000EB4000800000E0401E00900028FBD1AB
:1008E00054E61A4EB24209D1CE0107D422689A4288
:1008F00001D0AA42F4D141F080710AE06FF00045C6
:10090000EA42EDD14A02EBD422689A42E8D141F49E
:100910008001826822F0E0720A43826036E60000BD
:1009200000007F4000F0FF03FFFF0700000020FEF3
:100930000000088000030450000052C7000004506B
:10094000000204500C000020400D0300000084CB86
:1009500018BCBDE8E08F0000F8B54FF000050400BA
:100960002E46009502D0606D10B107E00120F8BD61
:10097000204600F0D3F8A66584F8506020688168AE
:10098000C1F3407119B181685A4A114081602068F1
:100990008168C1F3007189B98168574A114041F0FB
:1009A00080518160554856490068B0FBF1F0400025
:1009B000801C00E0401E00900028FBD12068816868
:1009C000C1F3007141B9616D41F010016165A16D24
:1009D00041F00101A165012501F0CDFA616DC90663
:1009E00000D430B1606D40F01000606501252846EC
:1009F000F8BD606D20F4807040F0020060652068F2
:100A0000806810F0010F15D13E4880683E4900F023
:100A10000100896801F0010108433C49896801F03F
:100A20000101084306D13A4960688A6822F47C12C1
:100A300002438A60E168606B627E0843A16841EA14
:100A40004231084394F8201040EA0140012904D1C2
:100A5000A18C304A02EB41410843A16A29B101F45B
:100A60007071E26A014342EA01002268D1682A4BB0
:100A700019400143D160206801F079FAA8B9207EBD
:100A800094F83010800340EA41012068C26844F2C3
:100A900002039A430A43C26094F8380001280CD03C
:100AA0002068016921F001010161206901282068A5
:100AB000016B21F00F0111D013E0D4E90F010843BD
:100AC000D4E911121143084321680A6940F2FC730A
:100AD0009A43104340F001000861E6E7E269521EC4
:100AE00011430163606D20F0020040F00100606579
:100AF0007DE70000C0FFFF5FC0FFFF7F0C0000200C
:100B0000400D030000000450000104500002045096
:100B1000000304500000FEFF07C0F0FF10B5A8B0AE
:100B20000446142122A8FFF79FFB88216846FFF79F
:100B30009BFB1B492068884230D14FF480400090D5
:100B40008003012408211E90CDE9024102200721E3
:100B5000CDE9041001900690C0050790684600F0AA
:100B6000FDF908B1FFF777FC0E48C16C41F4005164
:100B7000C164C16C01F400512791C16C41F00401C2
:100B8000C164C06C22A900F0040027900B20CDE9BD
:100B9000224000202490044800F008F828B010BD3E
:100BA0000000045000100240000800482DE9F04FFA
:100BB000DFF8EC9100220127A9F1040B85B0032591
:100BC0004FF00F0C09F1040AABF1040EE0E000BF96
:100BD00007FA02F416EA04037ED00E7906F0030643
:100BE000012E01D0022E1FD186680096560005FA0C
:100BF00006F80496009E26EA08060096D1F80C80B6
:100C0000049E08FA06F8009E48EA0608C0F8088024
:100C1000466891F80480A643C8F3001808FA02F861
:100C200048EA0608C0F80480D1F804806FEA080694
:100C3000B6070AD1C66AA643C8F3C0049440344339
:100C4000C4620C79E443A4070AD0C4684FEA42089E
:100C500005FA08F6B4438E6806FA08F62643C6601D
:100C60000C7904F00304022C11D1D40800EB8406A3
:100C70000296D6F820805407E60E0CFA06F428EA0D
:100C800004080C69B440029E44EA08043462046813
:100C90005600029605FA06F6B4430E7906F00308EC
:100CA000029E08FA06F848EA0408C0F800804C687A
:100CB00014F4403F6BD03B4C266E46F0010626668E
:100CC000246E22F0030604F001040094364C3444F0
:100CD0000294A468960700E059E04FEA16780CFAEF
:100CE00008F6B443B0F1904F04D0304EB04203D177
:100CF00001261BE0002619E02D4EB04201D102264C
:100D000014E02C4EB04201D103260FE02A4EB0422F
:100D100001D104260AE0294EB04201D1052605E0A2
:100D2000274EB04201D1062600E0072606FA08F653
:100D30002643029CA660D9F800404E46D1F80480B4
:100D40009C435FEAC82800D51C433460DAF80040B1
:100D50005646D1F804809C435FEA882800D51C439E
:100D60003460DBF800405E46D1F804809C435FEAC3
:100D7000883800D51C433460DEF800407646D1F850
:100D800004809C435FEAC83800D51C433460521C81
:100D90000B681E46D3407FF41BAF05B000F012B8BD
:100DA0000804014000100240000001400004004817
:100DB00000080048000C00480010004800140048DB
:100DC0000018004830BCBDE8C08F0AB1816170478F
:100DD0008162704701488068704700000000002071
:100DE0000248816802781144816070470000002049
:100DF00010B50024032000F063F80F2000F008F87D
:100E000008B1012401E000F025F8204610BD0000E3
:100E100070B50E4E05460024307898B14FF47A71C3
:100E2000B1FBF0F00A490968B1FBF0F000F0EEFD0B
:100E300040B9102D06D200222946501E00F020F89D
:100E4000756000E00124204670BD00000000002015
:100E50000C000020094808B5016E41F0010101664F
:100E6000016E01F001010091816D41F080518165B9
:100E7000806D00F08050009008BD0000001002401E
:100E8000F0B40E4B1B680C46C3F30223C3F10705F5
:100E9000042D00D90425191D072901D2002300E0E3
:100EA000DB1E012606FA05F1491E214099409E40AD
:100EB000761E16403143F0BC01F069BD0CED00E038
:100EC000064900F0070208684FF6FF03184040EAA1
:100ED0000220034A10430860704700000CED00E058
:100EE0000000FA051649B0F5007F0868C0F34120FC
:100EF00009D0022805D0086820F4C06040F4806062
:100F00000860002070470128FBD0086820F4C0600A
:100F100040F4007008600B483222006850430A4ACF
:100F2000B0FBF2F0401C00E0401E4A69520501D5BA
:100F30000028F9D148694005E3D503207047000037
:100F4000007000400C00002040420F000248006882
:100F500000F4C06070470000007000402DE9F84FB9
:100F6000044600270088E54D3E46010504F1200BAC
:100F70001DD5606E78B1B0F5800F11D0B0F5000FBF
:100F800004D0B0F5400F22D001270FE0E86840F40C
:100F90008030E8601BE00021201D01F0F9F803E03B
:100FA0000021584601F08AF9070010D03E462088FB
:100FB000C00426D5A06EC0B1B0F1807F1AD0B0F1C8
:100FC000007F0DD0B0F1407F19D0012718E0D5F88F
:100FD0008800616E20F440000843C5F88800E6E709
:100FE000E86840F48030E86009E00021201D01F04D
:100FF000CFF803E00021584601F060F90746F7B149
:101000003E46206880033AD5A86D4FF00008C00026
:1010100009D4A86D40F08050A865A86D4FF0010874
:1010200000F080500090DFF8D8A2DAF8001041F408
:101030008071CAF80010FFF7CDFE814610E0D5F8A8
:101040008800A16E20F040700843C5F88800D8E7FA
:10105000FFF7C0FEA0EB0900022801D9032705E035
:10106000DAF80000C005F3D5002F7CD04FEA070660
:10107000B8F1000F03D0A86D20F08050A86520784B
:10108000C00707D0D5F88800A16B20F00300084303
:10109000C5F888002078800707D5D5F88800E16B6F
:1010A00020F00C000843C5F888002078400707D5D9
:1010B000D5F88800216C20F030000843C5F888007E
:1010C0002078000707D5D5F88800616C20F0C000B3
:1010D0000843C5F888002078C00607D5D5F88800F1
:1010E000A16C20F440700843C5F888002078800681
:1010F00007D5D5F88800E16C20F440600843C5F8B6
:1011000088002088800507D5D5F88800E16D20F497
:1011100040200843C5F888002088400507D5D5F849
:101120008800216E20F440100843C5F8880020781C
:10113000400607D5D5F88800216D20F440500843BB
:10114000C5F888002078000607D5D5F88800616DBD
:1011500020F440400843C5F888002088C00509D520
:10116000D5F8880000E01CE0A16D20F44030084371
:10117000C5F8880020884FF0006780044FF0806831
:101180004FD5D5F88800E16E20F040600843C5F8DF
:101190008800E06EB8423CD1E86840F48010E86016
:1011A0003FE0D5F8900010F4407015D0D4F88410CA
:1011B000814211D0D5F89000D5F8901020F44070FD
:1011C00041F48031C5F89010D5F8901021F48031A9
:1011D000C5F89010C5F89000C00710D0FFF7FAFDD1
:1011E000074641F2883906E0FFF7F4FDC11B494587
:1011F00001D903263CE7D5F890008007F4D5D5F84F
:101200009000D4F8841020F440700843C5F8900092
:101210002EE7404505D10121201D00F0B9FF00B1A6
:1012200006462068000317D5D5F88800216F20F006
:1012300040600843C5F88800206FB84204D1E868D0
:1012400040F48010E86007E0404505D10121201DF1
:1012500000F09EFF00B106462068400317D5D5F880
:101260008800616F20F040600843C5F88800606F17
:10127000B84204D1E86840F48010E86007E04045D7
:1012800005D10121201D00F083FF00B10646208812
:1012900040041AD5D5F88800A16F20F040500843CB
:1012A000C5F88800A06FB0F1805F03D0B0F1005F97
:1012B00005D00AE00221201D00F06AFF03E00221B0
:1012C000584600F0FBFF00B106462088000407D511
:1012D000D5F88800E16F20F080400843C5F8880009
:1012E0002068C00307D555F8880FD4F8801020F087
:1012F000004008432860304600F004B80010024067
:101300000070004018BCBDE8E08F00002DE9F047F8
:101310000F4605006BD0494E306800F00700B84218
:1013200009D2306820F0070038433060306800F0A0
:101330000700B8425BD12878414C80070AD5A868DD
:10134000A16801F0F001884204D9A16821F0F00100
:101350000143A1602878C0072CD06868032811D009
:10136000022812D0216898B1490500293FDAA16806
:1013700021F003010143A160FFF72CFD804641F2FB
:10138000883910E021688901EFE721688903ECE7DB
:101390008907EAE7FFF71EFDA0EB0801494502D9DE
:1013A0000320BDE8F087A068696800F00C00B0EB8E
:1013B000810FEFD1287880070AD5A868A16801F0CD
:1013C000F001884204D2A16821F0F0010143A1603C
:1013D000306800F00700B8420BD9306820F00700F1
:1013E00038433060306800F00700B84201D0012077
:1013F000D7E72878400705D5A068E96820F4E060C1
:101400000843A0602878000706D5A068296920F461
:10141000605040EAC100A06000F01AF8A168094AD3
:10142000C1F30311515C01F01F01C8400649086077
:1014300006480068BDE8F047FFF7EABC002002401C
:1014400000100240EC2900080C00002004000020DD
:1014500070B52549002318468A68CC6812F00C0242
:1014600004F00306214C4FEA640509D00C2A05D08C
:10147000042A32D0082A00D1284670BD012E10D18E
:101480000B681B0704D4D1F89430C3F3032302E0A4
:101490000B68C3F30313164E56F82330DAB10C2A47
:1014A000EBD1C86800F00300022818D0032818D038
:1014B0001846CA68CB68C2F30212C3F3062343433B
:1014C000521CB3FBF2F2C868C0F34160401C4000FC
:1014D000B2FBF0F070BD184670BD204670BD2046CE
:1014E000E7E72846E5E70000001002400024F4008A
:1014F000FC2900082DE9F84304006FD0FD4DA868D1
:1015000000F00C06E86800F003072078C00664D5F8
:1015100076B10C2E01D1012F0AD0A06900282868CD
:101520007AD040F001002860FFF754FC80465DE06F
:101530002868800702D5A0690028DED0216A2868C3
:10154000000703D5286800F0F00004E0D5F8940007
:10155000F02202EA1010814216D9084600F032FF4C
:1015600000283BD1286840F0080028602868216ADC
:1015700020F0F000084328606868E16920F47F40AB
:1015800040EA0120686016E0286840F00800286002
:101590002868216A20F0F000084328606868E16943
:1015A00020F47F4040EA0120686026B9206A00F0FC
:1015B00009FF0028D5D1FFF74BFFA968CE4AC1F338
:1015C0000311515C01F01F01C840CC490860CC48B0
:1015D0000068FFF71DFC00287ED12EE0CAE000BFA6
:1015E000FFF7F8FBA0EB0800022876D828688007F0
:1015F000F6D5286840F0080028602868216A20F0A5
:10160000F000084328606868E16920F47F4040EA00
:101610000120686011E0FFE720F001002860FFF77B
:10162000D9FB804606E000BFFFF7D4FBA0EB080023
:101630000228DAD828688007F6D42078C00740D07E
:10164000082E18D00C2E01D1032F14D06068B0F5ED
:10165000803F17D0B0F5A02F286817D020F4803035
:101660002860286820F4802028606068E0B1FFF7D7
:10167000B1FB804614E02868800322D5606800280A
:1016800078D01EE0286840F48030EDE740F48020F8
:101690002860F7E7FFF79EFBA0EB08006428A4D8BA
:1016A00028688003F6D50CE0FFF794FB804605E040
:1016B000FFF790FBA0EB0800642896D82868800309
:1016C000F6D4207880073BD5042E11D00C2E01D102
:1016D000022F0DD0E06801E086E1D6E000282868FE
:1016E0001ED040F480702860FFF774FB07460CE0C2
:1016F000286840050CD5E0680028C1D008E000BF8C
:10170000FFF768FBC01B022893D828684005F7D56F
:101710006868217C20F0F85040EA016068600FE0C2
:1017200020F480702860FFF755FB074605E000BFF6
:10173000FFF750FBC01B0228B1D828684005F7D43A
:101740002078000729D560690028D5F8940012D0C8
:1017500040F00100C5F89400FFF73CFB074604E0A9
:10176000FFF738FBC01B022899D8D5F894008007F2
:10177000F6D512E000E120F00100C5F89400FFF773
:1017800029FB074605E000BFFFF724FBC01B02282A
:101790007BD8D5F894008007F6D42078400766D52A
:1017A000A86D0027C00008D4A86D40F08050A8653F
:1017B000A86D012700F08050009052480168C905CB
:1017C00012D40168814641F480710160FFF702FB89
:1017D000804605E0FFF7FEFAA0EB0800022854D887
:1017E000D9F80000C005F5D5A068012816D0052855
:1017F000D5F8900017D020F00100C5F89000D5F87A
:10180000900020F0040000BFC5F89000A06841F2ED
:101810008839C0B1FFF7DEFA80460FE0D5F89000B6
:1018200040F00100F0E740F00400C5F89000F5E753
:10183000FFF7D0FAA0EB0801494526D8D5F890006B
:101840008007F5D50EE0FFF7C5FA804606E000BF39
:10185000FFF7C0FAA0EB0801494516D8D5F890006B
:101860008007F5D41FB1A86D20F08050A865A06A4C
:10187000F0B302280AD00C2E7ED0286820F08070A9
:101880002860FFF7A7FA0446B0E0ACE0E868E26A37
:1018900000F00301914229D1216B00F0700209018F
:1018A0001039914222D1626B00F4FE41B1EB022F5C
:1018B0001CD1A26B00F40031072A01D0012200E004
:1018C0000022914212D1A18F00F4C00249084905BB
:1018D000A1F50011914209D194F8401000F0C060C8
:1018E00049084906A1F1007181425ED00C2E0BE03F
:1018F00072E0000000100240EC2900080C000020FB
:10190000040000200070004079D02868400176D49F
:101910002868C00073D4286820F080702860FFF722
:1019200059FA064605E000BFFFF754FA801B02286B
:1019300059D828688001F7D4D4E90B016FF00F0261
:1019400002EB01110843A18F5204490802EB4151F7
:10195000626B41EA0221084394F840104FF07E4246
:10196000490802EB41610843A16B090940EA414083
:10197000E968244A114000E041E00843E860286833
:1019800040F080702860E86840F08070E860FFF701
:1019900021FA044605E000BFFFF71CFA001B0228ED
:1019A00021D828688001F7D527E02868800124D451
:1019B000286840F080702860E86840F08070E86037
:1019C000FFF708FA044604E0FFF704FA001B0228B8
:1019D00009D828688001F7D50FE000BFFFF7FAF9B2
:1019E000001B022802D90320BDE8F8832868800183
:1019F000F4D4E86804490840E8600020F4E70120D6
:101A0000F2E700008C809DF9FCFFEEFE10B5401E51
:101A1000B0F1807F01D3012010BD4FF0E024606160
:101A20000F21601700F0B3FF0020A06107202061A4
:101A3000002010BD30B590F83C20012A3AD0012298
:101A400080F83C20CA688B6822F440721A434B68C5
:101A500022F480621A430B6822F400621A430B6975
:101A600022F480521A434B6922F400521A438B6AC3
:101A700022F480421A430B8B22F4702242EA034282
:101A80000D4D03680024AB4202D00C4DAB420CD18B
:101A90008D8C22F4700242EA0552CD6922F08072E8
:101AA0002A43096A22F000720A435A6480F83C40D3
:101AB000002030BD022030BD002C01400034014028
:101AC000F0B590F83C20012A39D0012480F83C4040
:101AD000022280F83D20026853689568194E1A4F1B
:101AE000B24201D0BA4204D123F4700C4B6843EAED
:101AF0000C0323F0700C0B6843EA0C03536002687C
:101B0000B24210D0B2F1804F0DD0104B9A420AD0A1
:101B10000F4B9A4207D00F4B9A4204D0BA4202D0E0
:101B20000D4B9A4204D1896825F0800319439160D6
:101B300080F83D40002180F83C100846F0BD0220AE
:101B4000F0BD0000002C01400034014000040040C2
:101B500000080040000C00400040014010B5044661
:101B6000022249B104290ED0082913D094F8470065
:101B7000012816D0012010BD94F844000128F9D1A5
:101B800084F844200FE094F845000128F2D184F84D
:101B9000452008E094F846000128EBD184F846205F
:101BA00001E084F847200422206800F0F1FC20685E
:101BB000416C41F40041416411492068884211D0D0
:101BC000B0F1804F0ED00F4988420BD00E498842A9
:101BD00008D00E49884205D00D49884202D00D49EF
:101BE000884207D181680C4A1140062906D0B1F518
:101BF000803F03D0016841F001010160002010BD69
:101C0000002C01400004004000080040000C00408F
:101C100000340140004001400700010010B50400FD
:101C200003D094F83D0010B107E0012010BD002062
:101C300084F83C00204600F023F8022084F83D00A0
:101C4000211D206800F040FC012084F8480084F841
:101C50003E0084F83F0084F8400084F8410084F896
:101C6000420084F8430084F8440084F8450084F876
:101C7000460084F8470084F83D00002010BD0000B5
:101C800008B500680649884208D10648016E41F44B
:101C900000510166006E00F40050009008BD000085
:101CA000003401400010024070B5044690F83C003A
:101CB0000025012817D0012684F83C60022084F812
:101CC0003D00226890682F4B184020F47F409060C0
:101CD0000868502838D00DDC20284FD005DC90B3A0
:101CE000102811D14AE0022070BD302846D040288B
:101CF0000AD13BE060282FD070280DD0B0F5805F6E
:101D000003D0B0F5005F12D0012584F83D600020BB
:101D100084F83C00284670BDCB68D1E901212068D9
:101D200000F043FC2068816841F0770109E0CB684E
:101D3000D1E90121206800F038FC2068816841F475
:101D400080418160E1E719E0CA684968206800F0D5
:101D5000CFFD5021206806E0CA684968206800F07D
:101D6000F5FD6021206800F02AFCCEE7CA684968CA
:101D7000206800F0BDFD40212068F4E7226801469C
:101D80001046F0E788FFFEFF10B586B00446142128
:101D90006846FEF769FA0E492068884216D10D4858
:101DA000C16C41F00101C164C06C694600F00100E2
:101DB00005902020009002200190002002900390C6
:101DC000032004904FF09040FEF7F0FE06B010BDE7
:101DD000003401400010024070B5044690F83C0009
:101DE00000260D4601280BD0012084F83C000C2A67
:101DF0004AD007DC82B1042A20D0082A06D131E07B
:101E0000022070BD102A53D0142A63D0012600206E
:101E100084F83C00304670BD206800F0D9FB206893
:101E2000816941F0080181612068816921F0040124
:101E30008161206881692A69114311E0206800F0FE
:101E400019FC2068816941F4006181612068816921
:101E500021F480618161206881692A6941EA022157
:101E60008161D4E7206800F04FFC2068C16941F02F
:101E70000801C1612068C16921F00401C1612068C5
:101E8000C1692A69114311E0206800F087FC2068CD
:101E9000C16941F40061C1612068C16921F48061B8
:101EA000C1612068C1692A6941EA0221C161AEE7C6
:101EB000206800F0ADFC2068416D41F008014165EB
:101EC0002068416D21F0040141652068416D2A6957
:101ED000114311E0206800F0D3FC2068416D41F40B
:101EE000006141652068416D21F480614165206891
:101EF000416D2A6941EA0221416588E710B5040075
:101F000003D094F83D0010B107E0012010BD00207F
:101F100084F83C00204600F022F8022084F83D00BE
:101F2000211D206800F0D0FA012084F8480084F8D0
:101F30003E0084F83F0084F8400084F8410084F8B3
:101F4000420084F8430084F8440084F8450084F893
:101F5000460084F8470084F83D00002010BD70471B
:101F6000FEE700EB8100006E00F0F84070478068EB
:101F7000C0F3C00070478068C0F38000704780687D
:101F8000C0F380007047042303EAD15310B518440E
:101F90004369C1F3045107248C40A3438A4013438F
:101FA000436110BD00EB8100016E21F0004111433F
:101FB0000166704730B589B0002406940794182153
:101FC00068460894FEF750F91B481A490425C0E9F1
:101FD00000148460C460C0E904450476447601219D
:101FE000C16180F820408462C46280F8304044635C
:101FF00080F83840FEF7B0FC08B172B6FEE706A9DB
:102000000D480694FEF72AFA08B172B6FEE70B48AF
:1020100000900620019002907F200594CDE90305F1
:1020200069460548FEF798FA002801D072B6FEE727
:1020300009B030BD00000450100000200200300440
:1020400030B587B014216846FEF70EF91648C16C0A
:1020500041F00401C164C16C01F004010591C16C3F
:1020600041F00101C164C16C01F001010591C16C35
:1020700041F00201C164C06C0C4D00F002004FF44D
:1020800000540590002221462846FEF79EFE0120BE
:1020900000210094CDE90101039169462846FEF72D
:1020A00085FD07B030BD000000100240000400486C
:1020B00010B59AB00024179418941594169412949D
:1020C00013941C210BA81494FEF7CEF82C2168461B
:1020D000FEF7CAF82B482A4901604F21C0E90114D4
:1020E00040F2F311C0E9031444618461FFF796FDE7
:1020F00008B172B6FEE74FF48050159015A921483B
:10210000FFF7D2FD08B172B6FEE71E48FFF7F6FEF4
:1021100008B172B6FEE71294139412A919481494E8
:10212000FFF7CEFC08B172B6FEE76020CDE90B04E4
:102130000D940E940F94109400220BA91148119441
:10214000FFF74AFE08B172B6FEE700944FF4005064
:10215000CDE9044001940294039400030694CDE970
:1021600007400994694607480A94FFF763FC08B1E1
:1021700072B6FEE70348FFF707FE1AB010BD000075
:102180000034014074000020FEE7FEE770470000C5
:102190002DE9F041444C05468846E0680026810759
:1021A00028680DD0E16801F00301814216D1A8B181
:1021B000E0686968C0F30210401C88420ED120E03C
:1021C000012804D0022805D0032807D108E021689F
:1021D000890701E021684905002907DB01265FE046
:1021E0002168890302D421684903F5E7E1686A6838
:1021F0006FF00F0321F0730103EB0212114301434F
:10220000E160206820F080602060FEF7E3FD074673
:1022100005E000BFFEF7DEFDC01B022837D82068AE
:102220000001F7D4B8F1000F18D0B8F1010F1ED09B
:10223000287D4FF07E41400801EB4060A96840EAEC
:1022400001202169194A114008432061206840F0AB
:1022500080602060FEF7BEFD07461AE0A868E968C6
:102260000002090940EA41402169114AEBE7288A46
:102270001049400801EB4050A96840EA012021695B
:102280000D4AE0E7FEF7A6FDC01B022801D9032690
:1022900006E020680001F5D52069A969084320619E
:1022A0003046BDE8F081000000100240FF80FFF9D9
:1022B000FF80FDFF0000E0FFFF809FFF2DE9F04160
:1022C0003D4C06468846E0680025810730680DD001
:1022D000E16801F00301814216D1A8B1E06871689C
:1022E000C0F30210401C88420ED120E0012804D027
:1022F000022805D0032807D108E02168890701E0FA
:1023000021684905002907DB012551E0216889037F
:1023100002D421684903F5E7E16872686FF00F03A2
:1023200021F0730103EB021211430143E1602068C5
:1023300020F080502060FEF74DFD074605E000BF0D
:10234000FEF748FDC01B022829D820688000F7D47A
:10235000B8F1000F15D0307C4FF07E41400801EB02
:102360004060B16840EA01206169144A11400843A5
:102370006061206840F080502060FEF72BFD07462A
:102380000FE0B068F1680002090940EA4140616964
:102390000B4AEBE7FEF71EFDC01B022801D90325FF
:1023A00006E020688000F5D56069716908436061C6
:1023B0002846BDE8F081000000100240FF80FFF9D0
:1023C000FF80FDFFF8B51C4D06460024A86DC00037
:1023D00002D5FEF7BBFD0DE0A86D40F08050A8656A
:1023E000A86D00F080500090FEF7B0FDA96D21F0BF
:1023F0008051A965B0F5007F04D0802E07D94FF039
:1024000003040AE0802E08D9A02E01D804E001D1EF
:10241000022402E0702E00D101240848016821F056
:10242000070121430160006800F00700A04201D0CD
:102430000120F8BD0020F8BD00100240002002403D
:102440007047FEF7CDBC00B597B044216846FDF754
:102450000BFF142111A8FDF707FF4FF40070FEF7E2
:1024600041FD08B172B6FEE70220C10103911021BF
:10247000009004910A900121CDE90B010A210D91F0
:102480000721CDE90E1010906846FFF733F808B128
:1024900072B6FEE70F2011900320129000201390D7
:1024A00014901590042111A8FEF730FF002801D0E8
:1024B00072B6FEE717B000BD0248016841F4700132
:1024C0000160704788ED00E02DE9F0470268284B75
:1024D000284D294E294F2A4C4FF0804A984209D066
:1024E000504507D0A84205D0B04203D0B84201D031
:1024F000A04204D122F0700C4A6842EA0C02DFF8D4
:1025000084C0DFF88480DFF8849098420FD0504573
:102510000DD0A8420BD0B04209D0B84207D0A0429B
:1025200005D0604503D0404501D0484503D122F491
:102530004075CA682A434D6922F080022A438D689B
:10254000C5620D688562984207D0A04205D06045FB
:1025500003D0404501D0484501D1096901630168B4
:1025600041F004010160012141610260BDE8F08792
:10257000002C01400004004000080040000C004016
:102580000034014000400140004401400048014047
:1025900010B501F00F030421046A99408C430462D2
:1025A000016A9A401143016210BD10B5846842EA85
:1025B000032224F47F440A432243826010BD8268D0
:1025C00022F070020A4342F0070181607047000068
:1025D0002DE9F043056A026A22F0010202624368B3
:1025E00082691E4C25F0020522400C6822F003028D
:1025F00014438A681B4E2A43194D1B4FDFF86CC0E9
:10260000DFF86C90A84207D0B04205D0B84203D0A2
:10261000604501D048450AD1D0F8208028F0040850
:10262000C0F8208022F00808CA6842EA0802A842DE
:1026300007D0B04205D0B84203D0604501D048452C
:1026400005D14D6923F440731D438B692B434360CF
:102650008461496841630262BDE8F0838FFFFEFF39
:10266000002C014000340140004001400044014082
:1026700000480140F0B5056A026A22F010020262C9
:10268000426883691A4C1C4E23400C6823F4407343
:1026900043EA042425F020038D6843EA0513154D11
:1026A000A84201D0B04208D1076A27F0400707626C
:1026B000CF6823F0800343EA0713A8420AD0B04250
:1026C00008D00E4DA84205D00D4DA84202D00D4DA8
:1026D000A84207D14D6922F4406242EA85028D6921
:1026E00042EA850242608461496881630362F0BD09
:1026F000FF8FFFFE002C01400034014000400140EC
:102700000044014000480140F0B5056A026A22F425
:10271000807202624268C3691A4C1C4E23400C68E6
:1027200023F003031C4325F400738D6843EA05235B
:10273000154DA84201D0B04208D1076A27F480673E
:102740000762CF6823F4006343EA0723A8420AD054
:10275000B04208D00E4DA84205D00E4DA84202D07E
:102760000D4DA84207D14D6922F4405242EA0512AC
:102770008D6942EA05124260C4614968C16303621F
:10278000F0BD00008FFFFEFF002C0140003401402F
:1027900000400140004401400048014030B5046A57
:1027A000026A22F4805202624268C369124D24F424
:1027B00000542B400D6823F4407343EA05238D68D1
:1027C00044EA05340D4DA8420BD00D4DA84208D067
:1027D0000C4DA84205D00C4DA84202D00B4DA8428A
:1027E00004D14D6922F4804242EA85124260C361FD
:1027F00049680164046230BDFF8FFFFE002C014078
:1028000000340140004001400044014000480140C4
:1028100030B5056A026A22F4803202624268436D72
:10282000114C23400C681C4325F400330D8943EA06
:1028300005430E4DA8420BD00D4DA84208D00D4DBA
:10284000A84205D00C4DA84202D00C4DA84204D19C
:102850004D6922F4803242EA0522426044654968AB
:102860008165036230BD00008FFFFEFF002C014038
:102870000034014000400140004401400048014054
:1028800030B5046A026A22F4801202624268436D23
:10289000114D24F400142B400D6843EA05230D89E3
:1028A00044EA05540D4DA8420BD00D4DA84208D066
:1028B0000C4DA84205D00C4DA84202D00B4DA842A9
:1028C00004D14D6922F4802242EA852242604365A8
:1028D0004968C165046230BDFF8FFFFE002C0140D6
:1028E00000340140004001400044014000480140E4
:1028F00010B5036A046A24F0010404620E4CA0427D
:102900000BD00E4CA04208D00D4CA04205D00D4C6F
:10291000A04202D00C4CA04203D1046A24F004046B
:102920000462846924F0F00444EA021423F00A02E9
:102930000A438461026210BD002C01400034014052
:1029400000400140004401400048014010B5036AC6
:10295000046A24F0100404620A4CA04202D00A4C1B
:10296000A04203D1046A24F040040462846923F085
:10297000A00324F4704444EA023243EA0111826164
:10298000016210BD002C014000340140FEE7090740
:10299000090E002804DB00F1E02080F800147047E5
:1029A00000F00F0000F1E02080F8141D70470000D7
:1029B000FEF71EFAFFF747FDFFF742FBFFF7FAFAB3
:1029C000FFF776FB0549002201F14C00FDF7B0FC52
:1029D00002484C30FDF717FDFAE7000074000020B4
:1029E0004FF04070E1EE100A704700000000000058
:1029F000000000000102030406070809A086010088
:102A0000400D0300801A060000350C0040420F0004
:102A100080841E0000093D0000127A000024F400AA
:102A200000366E010048E801006CDC024C2A000808
:102A30000000002010000000C40100085C2A00080B
:102A40001000002038070000E0010008010000002D
:0C2A5000100000000000000000093D0024
:040000050800018965
:00000001FF
