:020000040800F2
:10000000D806002029020008C51100083511000893
:10001000C11100082F030008FD12000800000000B5
:10002000000000000000000000000000691200084D
:100030003303000800000000C91100086B1200081B
:10004000430200084302000843020008430200087C
:10005000430200084302000843020008430200086C
:10006000430200084302000843020008430200085C
:10007000430200084302000843020008430200084C
:10008000430200084302000843020008430200083C
:10009000430200084302000843020008430200082C
:1000A000430200084302000843020008430200081C
:1000B000430200084302000843020008430200080C
:1000C00043020008430200084302000843020008FC
:1000D00043020008430200084302000843020008EC
:1000E00043020008430200084302000843020008DC
:1000F00043020008430200084302000843020008CC
:1001000043020008430200084302000843020008BB
:1001100043020008430200084302000843020008AB
:10012000430200084302000843020008430200089B
:10013000430200084302000843020008430200088B
:10014000430200084302000843020008430200087B
:10015000430200084302000843020008430200086B
:10016000430200084302000843020008430200085B
:100170004302000843020008430200080000000098
:10018000430200084302000800F002F800F03CF8C7
:100190000AA090E8000C82448344AAF10107DA45E2
:1001A00001D100F031F8AFF2090EBAE80F0013F0F8
:1001B000010F18BFFB1A43F0010318479014000009
:1001C000B0140000103A24BF78C878C1FAD852079A
:1001D00024BF30C830C144BF04680C6070470000C1
:1001E0000023002400250026103A28BF78C1FBD840
:1001F000520728BF30C148BF0B6070471FB501F0E0
:10020000EFF91FBD10B510BD00F058F81146FFF70B
:10021000F5FF01F053F900F076F803B4FFF7F2FFB1
:1002200003BC00F07DF800000948804709480047FA
:10023000FEE7FEE7FEE7FEE7FEE7FEE7FEE7FEE796
:10024000FEE7FEE704480549054A064B70470000F3
:10025000E912000889010008D8000020D806002013
:10026000D8020020D80200204FF0000200B513464B
:1002700094469646203922BFA0E80C50A0E80C50C6
:10028000B1F12001BFF4F7AF090728BFA0E80C5077
:1002900048BF0CC05DF804EB890028BF40F8042B70
:1002A00008BF704748BF20F8022B11F0804F18BFDD
:1002B00000F8012B7047704770477047754600F093
:1002C0002BF8AE4605006946534620F007008546E8
:1002D00018B020B5FFF7B6FFBDE820404FF000068C
:1002E0004FF000074FF000084FF0000B21F007011E
:1002F000AC46ACE8C009ACE8C009ACE8C009ACE861
:10030000C0098D46704710B50446AFF30080204603
:10031000BDE81040FFF781BF00487047740000201F
:1003200001491820ABBEFEE726000200704700BF5F
:10033000FEE7704772B600BFFEE7000078B50246E0
:100340000B460021DFE001268E401D6805EA060409
:10035000002C7DD01D7905F00305012D04D01D79F9
:1003600005F00305022D13D190684E000325B5401A
:10037000A8434E00DD68B5402843906050680125D1
:100380008D40A8431D79C5F300158D40284350606A
:100390001D7905F00305032D09D1D06A01258D4093
:1003A000A8431D79C5F3C0058D402843D0621D794F
:1003B00005F00305032D09D0D0684E000325B54094
:1003C000A8434E009D68B5402843D0601D7905F0D4
:1003D0000305022D13D1CE0802F1200555F82600A1
:1003E0004D07EE0E0F25B540A8434E07F60E1D69CA
:1003F000B5402843CE0802F1200545F826001068D4
:100400004E000325B540A8431D7905F003054E00B5
:10041000B540284310605D6805F44035002D71D06B
:1004200000BF3C4D2D6E45F001053A4E3566354610
:100430002D6E05F00105009500BF00BF4FEAB635EF
:100440008E0855F826008D072E0F0F25B54000E0C9
:1004500058E0A843B2F1904F01D100251EE02E4D87
:10046000AA4201D1012519E02C4DAA4201D1022551
:1004700014E02B4DAA4201D103250FE0294DAA42D9
:1004800001D104250AE0284DAA4201D1052505E045
:10049000264DAA4201D1062500E007258E07360F1A
:1004A000B5402843224D8E0845F82600214D286886
:1004B000A0435D6805F4801505B120431D4D2860FB
:1004C0002D1D2868A0435D6805F4001505B1204383
:1004D000184D2D1D2860174D2D1F2868A0435D68FD
:1004E00005F4003505B12043124D2D1F28602D1F46
:1004F0002868A0435D6805F4803505B120430D4DA3
:10050000083D2860491C1D68CD40002D7FF41BAFBD
:1005100078BD0000001002400004004800080048B8
:10052000000C004800100048001400480018004863
:100530000800014008040140024613690B400BB15A
:10054000012000E0002070470AB1816100E0816273
:100550007047000001480068704700001800002044
:100560000348006803490978084401490860704756
:10057000180000202000002010B50024032000F007
:1005800099F80F2000F008F808B1012401E000F00C
:100590002FF8204610BD000070B504460025114814
:1005A0000078D8B10F4800784FF47A71B1FBF0F0C1
:1005B0000D490968B1FBF0F6304600F0A1FD58B9CD
:1005C000102C07D200222146501E00F031F80748B7
:1005D000046004E0012502E0012500E00125284631
:1005E00070BD000020000020240000201C0000201E
:1005F00008B500BF0D48006E40F001000B490866C9
:100600000846006E00F00100009000BF00BF00BF70
:100610000846806D40F0805088650846806D00F087
:100620008050009000BF00BF08BD000000100240D5
:100630002DE9F05F80460D461646002700F060FE6B
:10064000074639462A46334601F00700C0F1070A3B
:10065000BAF1040F02D94FF0040A01E0C0F1070A11
:10066000D14600F1040ABAF1070F02D24FF0000A96
:1006700001E0A0F1030AD4464FF0010A0AFA09FA90
:10068000AAF1010A0AEA020A0AFA0CFA4FF0010B6F
:100690000BFA0CFBABF1010B0BEA030B4AEA0B0460
:1006A0002146404600F034FE00F000B830BCBDE802
:1006B000C09F000000BF00F00702064B19684FF60C
:1006C000FF031940044B0B4343EA0221014B19601D
:1006D00000BF70470CED00E00000FA050246B2F5DD
:1006E000007F2AD11D48006800F4C060B0F5007F8B
:1006F00032D01A48006820F4C06040F40070174BF4
:1007000018601748006832235843164BB0FBF3F0CB
:10071000411C00E0491E1148406900F48060B0F5BA
:10072000806F01D10029F5D10C48406900F4806048
:10073000B0F5806F10D1032070470848006800F4BE
:10074000C060B0F5806F07D00448006820F4C06036
:1007500040F48060014B18600020EDE7007000401D
:100760002400002040420F000248006800F4C060EE
:1007700070470000007000402DE9F04104460D462E
:1007800014B90120BDE8F0816348006800F007005B
:10079000A8420ED26048006820F0070028435E4956
:1007A00008600846006800F00700A84201D0012058
:1007B000E8E7207800F0020002280ED15749A0682F
:1007C000896801F0F001884207D95448806820F018
:1007D000F000A168084351498860207800F00100CA
:1007E00078B36068032806D14C48006800F00070B8
:1007F000D8B90120C6E76068022806D147480068DA
:1008000000F4003088B90120BCE7606830B9434883
:10081000006800F0020040B90120B3E73F480068DB
:1008200000F4806008B90120ACE73C48806820F003
:1008300003006168084339498860FFF78BFE06466C
:1008400009E010E0FFF786FE801B41F28831884204
:1008500001D9032096E73148806800F00C006168F8
:10086000B0EB810FEED1207800F0020002280ED10B
:100870002A49A068896801F0F001884207D2274818
:10088000806820F0F000A16808432449886022486D
:10089000006800F00700A8420ED91F48006820F049
:1008A000070028431C4908600846006800F007005C
:1008B000A84201D0012065E7207800F00400042858
:1008C00007D11648806820F4E060E16808431349C6
:1008D0008860207800F00800082808D10F48806858
:1008E00020F46050216940EAC1000C49886000F0A2
:1008F0001DF80A498968C1F30311094A515C01F0E6
:100900001F01C8400749086007480068FFF744FE18
:100910000746384636E7000000200240001002403B
:10092000F3150008240000201C000020F0B500236F
:100930000020DFF8D4C0DCF808C00CF00C01DFF8B0
:10094000C8C0DCF80CC00CF0030719B10C291ED18B
:10095000012F1CD1DFF8B0C0DCF800C00CF0080C8F
:10096000BCF1000F06D1DFF8A0C0DCF894C0CCF3D6
:10097000032305E0DFF890C0DCF800C0CCF30313DC
:10098000DFF888C05CF8233041B9184606E0042936
:1009900001D11F4802E0082900D11E480C2932D19C
:1009A000DFF864C0DCF80CC00CF00304012C09D0A3
:1009B000022C02D0032C04D101E0154A04E0154AB0
:1009C00002E000BF1A4600BF00BFDFF83CC0DCF801
:1009D0000CC0CCF3021C0CF10106DFF82CC0DCF8D3
:1009E0000CC0CCF3062C0CFB02FCBCFBF6F2DFF8CF
:1009F00018C0DCF80CC0CCF3416C0CF1010C4FEAD0
:100A00004C05B2FBF5F0F0BD001002400C160008DA
:100A10000024F40000127A002DE9F843044614B9CA
:100A20000120BDE8F883F948806800F00C06F7481B
:100A3000C06800F00307207800F01000102877D17C
:100A40001EB10C2E76D1012F74D1F048006800F051
:100A5000020018B1A06908B90120E2E7EB48216A59
:100A6000006800F0080020B1E848006800F0F000DD
:100A700005E0E6489430006800F4706000098142A7
:100A80001FD9206A00F0A2FB08B10120C9E700BF0E
:100A9000DE48006840F00800DC490860084600684D
:100AA00020F0F000216A0843D849086000BF0846DA
:100AB000406820F47F40E16940EA0120D349486062
:100AC0001FE000BFD148006840F00800CF4908602F
:100AD0000846006820F0F000216A0843CB4908600E
:100AE00000BF0846406820F47F40E16940EA0120E9
:100AF000C64948602EB9206A00F068FB08B10120A1
:100B00008FE7FFF713FFC1498968C1F30311C04A9A
:100B1000515C01F01F01C840BE490860BE48006832
:100B2000FFF73AFD8046B8F1000F4ED0404678E717
:100B30004BE0FFE7A06980B3B448006840F00100D3
:100B4000B2490860FFF706FD054606E0FFF702FD23
:100B5000401B022801D9032063E7AC48006800F07D
:100B600002000028F2D000BFA848006840F008004A
:100B7000A64908600846006820F0F000216A084392
:100B8000A249086000BF0846406820F47F40E16940
:100B900040EA01209D49486017E0FFE79B48006854
:100BA00020F0010099490860FFF7D4FC054606E0F3
:100BB000FFF7D0FC401B022801D9032031E79348FE
:100BC000006800F002000028F2D1207800F0010057
:100BD00000285CD0082E03D00C2E0AD1032F08D198
:100BE0008A48006800F4003088B3606878BB012050
:100BF00017E700BF6068B0F5803F06D18348006802
:100C000040F48030814908601AE06068B0F5A02F98
:100C10000BD17E48006840F480207C49086008467B
:100C2000006840F4803008600AE07848006820F4EA
:100C30008030764908600846006820F4802008600B
:100C400000BF606890B1FFF785FC054607E01EE035
:100C5000FFF780FC401B642801D90320E1E66B48C4
:100C6000006800F400300028F2D010E0FFF772FCBA
:100C7000054606E0FFF76EFC401B642801D90320FF
:100C8000CFE66248006800F400300028F2D12078F6
:100C900000F00200022852D1042E03D00C2E14D1F1
:100CA000022F12D15948006800F4806018B1E06842
:100CB00008B90120B5E65548406820F0F850217C7D
:100CC00040EA01605149486039E0E06800B34F48AC
:100CD000006840F480704D490860FFF73BFC054612
:100CE00006E0FFF737FC401B022801D9032098E6F5
:100CF0004648006800F480600028F2D0434840680D
:100D000020F0F850217C40EA01604049486016E03C
:100D10003E48006820F480703C490860FFF71AFCE8
:100D2000054606E0FFF716FC401B022801D9032008
:100D300077E63648006800F480600028F2D1207819
:100D400000F00800082836D16069D0B12F489430EF
:100D5000006840F001002D49C1F89400FFF7FAFB4C
:100D6000054606E0FFF7F6FB401B022801D90320E9
:100D700057E626489430006800F002000028F1D0C1
:100D800019E022489430006820F001001F49C1F8A2
:100D90009400FFF7DFFB054606E0FFF7DBFB401B97
:100DA000022801D903203CE618489430006800F07E
:100DB00002000028F1D1207800F00400042872D14C
:100DC0004FF000091148806D00F0805078B900BFE5
:100DD0000E48806D40F080500C4988650846806D53
:100DE00000F08050009000BF00BF4FF001090B4899
:100DF000006800F4807000BB0848006840F4807010
:100E000006490860FFF7A6FB054610E00010024007
:100E1000F3150008240000201C0000200070004092
:100E2000FFF798FB401B022801D90320F9E5B048E1
:100E3000006800F480700028F2D000BFA06801288C
:100E400008D1AC48006840F00100AA499039C1F8C7
:100E5000900021E0A06805280FD1A648006840F066
:100E60000400A4499039C1F890000846D0F89000D9
:100E700040F00100C1F890000EE09E48006820F0AC
:100E800001009C499039C1F890000846D0F89000C4
:100E900020F00400C1F8900000BFA068A0B1FFF7E7
:100EA00059FB054609E02EE0FFF754FB401B41F2D9
:100EB0008831884201D90320B3E58E48006800F0EC
:100EC00002000028F0D012E0FFF744FB054608E0DE
:100ED000FFF740FB401B41F28831884201D90320D3
:100EE0009FE58448006800F002000028F0D1B9F1C5
:100EF000010F07D17F489038806D20F080507D49E8
:100F00009039886500BFA06A00287DD0A06A0228B9
:100F10007BD178489038C76807F00301E06A8142C6
:100F200028D107F07001206B401EB1EB001F21D1CA
:100F300007F4FE41606BB1EB002F1BD107F40031C9
:100F4000A06B072801D0012000E00020814211D1D0
:100F500007F4C001A08F0122C2EB5000B1EB405F4B
:100F600008D107F0C0614020005DC2EB5000B1EB3A
:100F7000406F6CD00C2E68D05E489038006800F04E
:100F8000806028B95B489038006800F0805008B154
:100F9000012046E557489038006820F08070554998
:100FA00090390860FFF7D6FA054606E0FFF7D2FA57
:100FB000401B022801D9032033E54E4890380068D1
:100FC00000F000700028F1D1D4E90B10401E41EA76
:100FD0000011606B41EA0021A08F0122C2EB50009A
:100FE00041EA40514020005DC2EB500041EA4061BF
:100FF000A06B000941EA40403E499039C9683E4A29
:10100000114008433B4901E05CE046E09039C8608C
:101010000846006840F0807008600846C06840F0EC
:101020008070C860FFF796FA054606E0FFF792FA6F
:10103000401B022801D90320F3E42E4890380068B1
:1010400000F000700028F1D04FE00120E9E42948C9
:101050009038006800F00070A0BB26489038006807
:1010600040F080702349903908600846C06840F01D
:101070008070C860FFF76EFA054606E0FFF76AFA6F
:10108000401B022801D90320CBE41A48903800689D
:1010900000F000700028F1D027E00C2E23D0154876
:1010A0009038006820F08070124990390860FFF78E
:1010B00051FA054607E0FFF74DFA401B022802D916
:1010C0000320AEE411E00B489038006800F0007097
:1010D0000028F0D107489038C06808490840054901
:1010E0009039C86001E001209BE4002099E40000F1
:1010F00000700040901002408C809DF9FCFFEEFED5
:1011000070B504462546681EB0F1807F01D30120EA
:101110000FE0681E4FF0E02148610F214FF0FF30D3
:1011200000F0F6F800204FF0E02188610720086108
:10113000002070BD00BFFEE700B587B0142102A8F3
:10114000FFF792F800BF1C48C06C40F002001A493B
:10115000C8640846C06C00F00200019000BF00BFE8
:1011600000BF0846C06C40F00100C8640846C06C6F
:1011700000F00100019000BF00BF002207210F48CE
:10118000FFF7E2F90720029001200390002004906D
:10119000059002A90948FFF7D1F84FF4C05002901A
:1011A000002003900120049002A94FF09040FFF727
:1011B000C5F807B000BD0000001002400004004860
:1011C00000BFFEE700BFFEE770470000F8B5044629
:1011D00000262348806D00F0805018B1FFF7C4FA54
:1011E000054616E000BF1E48806D40F080501C4947
:1011F00088650846806D00F08050009000BF00BFF9
:10120000FFF7B2FA05461648806D20F08050144969
:101210008865B5F5007F07D1802C10D9A02C01D9A5
:1012200002260CE001260AE0802C01D9032606E004
:10123000802C01D1022602E0702C00D10126094841
:10124000006820F00700304306490860084600683F
:1012500000F00700B04201D00120F8BD0020FCE7FB
:101260000010024000200240704710B5FFF778F9E7
:1012700010BD00B597B0442106A8FEF7F5FF142174
:1012800001A8FEF7F1FF4FF40070FFF727FA08B14D
:10129000FFF750F802200690C001099010200A9034
:1012A0000220109002211191012112910A21139123
:1012B0000721149102211591169106A8FFF7ACFBA6
:1012C00008B1FFF737F80F200190032002900020AB
:1012D000039004900590042101A8FFF74DFA08B18E
:1012E000FFF728F817B000BD0348006840F470000D
:1012F000014908607047000088ED00E000BFFEE78C
:1013000002480068C0F30220704700000CED00E0C6
:1013100010B5002804DB0A07130E054A135406E033
:101320000A07140E034A00F00F031B1FD45410BD0C
:1013300000E400E018ED00E01149814202D01149BB
:1013400081421BD11049097831B1012908D0022905
:101350000AD0032910D10BE001210B4A11700CE0D7
:101360000221094A117008E00321074A117004E0C4
:101370000021054A117000E000BF00BF7047000067
:10138000440000205C0000201400002070477047DB
:10139000704770B50446A18A2069FFF7CDF805466D
:1013A000A078A84205D0A5700120E070FFF7D2F820
:1013B0006060E078012809D1FFF7CCF86168401A35
:1013C0000F2803D9A07820700020E0702078617881
:1013D000884219D0207840B9012020732046FFF7B9
:1013E000D6FFFFF7B7F8A0600CE0FFF7B3F8A168ED
:1013F000401AB0F57A7F02D82046FFF79DFF2046BD
:10140000FFF7C6FF20786070207B60B1FFF7A2F87D
:10141000A168401A40F6B831884204D32046FFF74D
:10142000B5FF0020207370BD0123037043708370EB
:10143000016182827047000010B532220221024809
:1014400000F06EF810BD00002800002010B56422E6
:101450000121024800F064F810BD000028000020BF
:1014600010B54FF4FA720021014800F059F810BD90
:101470002800002010B50C48007830B1012807D0B2
:10148000022808D003280CD108E000F00FF809E08A
:10149000FFF7E6FF06E0FFF7D9FF03E0FFF7CCFF19
:1014A00000E000BF00BF10BD1400002010B50621F1
:1014B000014800F05FF810BD28000020FFF75CF83D
:1014C000114A1249124800F03DF84FF400624FF003
:1014D00090411048FFF7A8FF4FF480524FF0904121
:1014E0000D48FFF7A1FFFFF7C4FE00200B4908706D
:1014F000FFF722FE07E00748FFF74BFF0648FFF71C
:1015000048FFFFF7B7FFF6E70C00002000000020BF
:1015100028000020440000205C000020140000206F
:1015200070B504460E461546FFF714F86169401A77
:10153000A84206D33146204600F03EF8FFF70AF8ED
:10154000606170BD70B504460D461646286820607F
:1015500068686060A868A0603088A0817088E081B9
:10156000B08820820020A07406202076FEF7F2FFCB
:10157000606170BD70B504460D462576062D01D01C
:10158000012000E00020A0740A48465DA189C6F34E
:1015900080022068FEF7D8FFE189C6F34002606848
:1015A000FEF7D2FF06F00102218AA068FEF7CCFF09
:1015B00070BD00004316000870B504460D46A07CBF
:1015C000012806D106212046FFF7D4FF0020A07491
:1015D00005E029462046FFF7CDFF0120A07470BD2D
:1015E0004FF04070E1EE100A70470000081C3044D4
:1015F000586C800000000000000000010203040697
:10160000070809000000000102030400A086010091
:10161000400D0300801A060000350C0040420F0008
:1016200080841E0000093D0000127A000024F400AE
:1016300000366E010048E801006CDC02081C3044F2
:10164000586C800402010706050000006C160008B3
:101650000000002028000000C401000894160008C3
:1016600028000020B0060000E00100080004004847
:1016700000040048000400480200010004000000CB
:101680000000000000000000100000000100000049
:0416900000093D0010
:040000050800018965
:00000001FF
